:100000000C9462000C948A000C948A000C948A0070
:100010000C948A000C948A000C948A000C948A0038
:100020000C948A000C948A000C948A000C948A0028
:100030000C948A000C948A000C948A000C948A0018
:100040000C9477140C948A000C949A130C947413E7
:100050000C948A000C948A000C948A000C948A00F8
:100060000C948A000C948A000000000025002800EF
:100070002B0000000000240027002A0000000000E0
:1000800023002600290004040404040404040202DA
:100090000202020203030303030301020408102007
:1000A0004080010204081020010204081020000012
:1000B0000008000201000003040700000000000027
:1000C0000000D31D11241FBECFEFD8E0DEBFCDBF8F
:1000D00014E0A0E0B1E0E8E3F4E402C005900D9282
:1000E000AE30B107D9F725E0AEE0B4E001C01D9213
:1000F000A63EB207E1F710E0C2E6D0E004C02197C7
:10010000FE010E94E11FC136D107C9F70E94C7173F
:100110000C941A220C940000CF93DF931F92CDB75A
:10012000DEB76983DC01ED91FC910280F381E02D63
:1001300041E050E0BE016F5F7F4F09950F90DF9166
:10014000CF910895DC01ED91FC91068CF78DE02DA7
:10015000099591E089270895862F089581E08627E3
:100160000895089580E090E0089580E3FB01808386
:100170003296842F82958F7090E1899F40191124C7
:100180004A3014F4405D01C0495C4293482F81110C
:10019000F0CF0895DC011496ED91FC9115971C9613
:1001A0008C911C97882361F01A962D913C911B9796
:1001B000621773072CF01896ED91FC9119970AC0FD
:1001C00020E030E007C03097C9F00280F381E02DD5
:1001D0002F5F3F4F26173707B4F32617370771F401
:1001E00081E01C968C931C971B963C932E931A9738
:1001F0001996FC93EE931897CF01089580E090E054
:1002000008950E94CA00009721F0FC01808191812D
:10021000089580E090E00895CF93DF9377FD0EC0BE
:10022000FC01228133816217730744F4EA010E94C2
:10023000CA00FC01D183C08381E001C080E0DF916E
:10024000CF910895FC01828193810895CF93DF932C
:10025000EC01E881F9810190F081E02DCE01099552
:100260001816190644F4E881F9810684F785E02D13
:10027000CE010995EECFDF91CF910895FC018485E1
:100280000C94A615CF93DF931F92CDB7DEB741E054
:1002900050E0BE016F5F7F4FFC0184850E94A61570
:1002A000181619061CF4898190E002C08FEF9FEFA9
:1002B0000F90DF91CF910895FC018485843011F077
:1002C0000C94841580E090E008950F931F93CF93D2
:1002D000DF9377FD3EC0DC0112962D913C91139780
:1002E00062177307B4F56115710531F4ED91FC9156
:1002F0000684F785E02D0BC0215031096217730782
:1003000059F4DC01ED91FC910484F585E02DDF9139
:10031000CF911F910F910994EC01615071090E94D6
:10032000CA00DC011296ED91FC91139700811181B6
:100330002281338113963C932E931297CF010E9412
:100340007C208A819B8101979B838A831C86C801BC
:1003500002C080E090E0DF91CF911F910F9108954E
:10036000EF92FF920F931F93CF93DF93FC01628173
:1003700073811616170664F5EC0114866130710559
:10038000C1F0625071090E94CA007C01FC018281A7
:100390009381FC01008111810E947C20F70113826E
:1003A0001282FF82EE828A819B8101979B838A83DE
:1003B0000DC084819581FC01008111810E947C2007
:1003C0001D821C821F821E821B821A82C80102C0EB
:1003D00080E090E0DF91CF911F910F91FF90EF901F
:1003E0000895EF92FF920F931F93CF93DF93DC0159
:1003F00012962D913C9113971216130624F5213075
:100400003105A1F0EC01EC81FD81E280F3800081F7
:100410001181CF010E947C20FD82EC828A819B8128
:1004200001979B838A831C86C8010FC0DC01ED9174
:10043000FC910484F585E02DDF91CF911F910F9100
:10044000FF90EF90099480E090E0DF91CF911F91B1
:100450000F91FF90EF900895EF92FF920F931F93EB
:10046000CF93DF93DC0112960D911C911397011528
:10047000110561F4ED91FC910480F581E02DDF918F
:10048000CF911F910F91FF90EF9009947B01EC01A8
:1004900084E090E00E94E71F2C813D81FC013383C2
:1004A0002283F182E0829D838C830F5F1F4F1B8329
:1004B0000A831C8681E0DF91CF911F910F91FF90FD
:1004C000EF900895CF92DF92EF92FF920F931F93D8
:1004D000CF93DF939B01BA01DC0112964D915C91A1
:1004E00013972417350734F0ED91FC910480F581C2
:1004F000E02D09C02115310579F4DC01ED91FC9165
:100500000680F781E02DDF91CF911F910F91FF9031
:10051000EF90DF90CF9009947B01E9018C0184E09A
:1005200090E00E94E71F6C01FC011182108213828F
:100530001282BE0161507109C8010E94CA00D60131
:100540001196FC92EE92FC012281338113963C932A
:100550002E931297D382C282D80112968D919C91CC
:100560001397019613969C938E9312971C961C9248
:1005700081E0DF91CF911F910F91FF90EF90DF907D
:10058000CF9008950F931F93CF93DF93EC018B01CE
:1005900084E090E00E94E71FFC0113821282118325
:1005A00000832C813D81232B29F0EE81FF819383F1
:1005B000828302C09D838C839F838E838A819B81EB
:1005C00001969B838A831C8681E0DF91CF911F91E6
:1005D0000F910895BC0185E994E00C94AA17089541
:1005E0008CBD9DBD08958F929F92AF92BF92CF9286
:1005F000DF92EF92FF920F931F93CF936C015B01F9
:100600007A01FC01C485C43041F481E090E0F60138
:100610009383828380E090E04EC08A01413058404D
:1006200010F000E018E080E590E00E94F0028C2FCE
:100630000E94B80E4C0163E070E08C2F0E94AC0B5E
:10064000873111F08C3121F48016910660F302C0DD
:1006500000E010E080E590E00E94F0029801A50122
:1006600060E070E08C2F0E94530E60E270E08C2FEF
:100670000E94DB0D62E070E08C2F0E94AC0B84FDC9
:1006800010C063E070E08C2F0E94AC0B811104C09D
:100690008C2F0E94F915B9CF80E590E00E94F002FE
:1006A000E9CF40E162E070E08C2F0E94A20B012BA9
:1006B00009F4ABCFC701CF911F910F91FF90EF903D
:1006C000DF90CF90BF90AF909F908F900895CF9282
:1006D000DF92FF920F931F93CF93DF93FC0124854A
:1006E000243009F077C06A01EB018C01F12C8F2DC9
:1006F0000E94D20B811103C0F801F48607C08B7FE2
:100700008831D1F3F394F4E0FF12F1CFF80184853E
:10071000843009F45FC020910001309101012F5F06
:100720003F4F11F420E030EC3093010120930001A1
:10073000409100015091010120E061E00E940D16FE
:10074000F801F4848A818F3F51F48B818F3F91F4BB
:100750008C818F3F79F48D818F3F61F438C0811196
:1007600009C08B81811106C08C81811103C08D81EC
:10077000882369F1C114D10451F180E590E00E9411
:10078000F002BE016E5F7F4F8F2D90E0982F88277B
:1007900044E050E0845F9B4F0E941415B6018F2DFA
:1007A0000E94500C64E070E08F2D0E94DB0DC801A8
:1007B0000E94180D873189F061E070E080E090E0E0
:1007C0000E943114C8010E94180D8111F0CF84E0FD
:1007D000F801848780E090E002C081E090E0DF9142
:1007E000CF911F910F91FF90DF90CF9008952F929E
:1007F0003F924F925F926F927F928F929F92AF92B1
:10080000BF92CF92DF92EF92FF920F931F93CF93FD
:10081000DF93CDB7DEB765970FB6F894DEBF0FBE96
:10082000CDBF7C016B013A01FB0120E080E090E04C
:100830006AE03191332309F140ED430F4A3080F4EF
:10084000689FA001699F500D1124CA01C097830FB2
:10085000911D37FD9A958F3F910559F350F313C0C1
:100860003E3289F4233079F0D301A20FB11D1296E4
:100870008C932F5F80E090E0DCCF233021F4F301F4
:10088000858381E021C0F7014281538164817581B4
:100890008091840590918505A0918605B09187058A
:1008A000481759076A077B0709F49EC10E946B1419
:1008B0008701085F1F4F6F7077277C5FC8010E9418
:1008C000EB0B813019F080E090E0F3C180EE91E015
:1008D0009A838983F70182819381A481B5818B8377
:1008E0009C83AD83BE8345E350E0BE016F5F7F4FC5
:1008F000C8010E94D80C892B19F4C12CD12C6FC1CE
:100900000E946B14F7017783668376276727762723
:100910007A83698342E050E0BE016F5F7F4FC80178
:100920000E94E20A81E090E09E878D8742E050E0DD
:10093000BE01635F7F4FC8010E94E20A80E091E040
:100940009E878D8742E050E0BE01635F7F4FC80104
:100950000E94E20A1E861D8642E050E0BE01635FEF
:100960007F4FC8010E94E20A42E050E0BE01635F8F
:100970007F4FC8010E94E20A42E050E0BE01635F7F
:100980007F4FC8010E94E20A5601F5018081882349
:1009900011F1F6015F018191811115C045018C189B
:1009A0009D081814190494F48F8641E050E0BE01AC
:1009B000615F7F4FC8010E94E20AA401B601C8012D
:1009C0000E94E20A03C08E3229F7E8CF6501FFEFEB
:1009D000CF1ADF0ADACF1F8641E050E0BE01615F27
:1009E0007F4FC8010E94E20AC12CDD24D394DE8629
:1009F000CD8642E050E0BE01635F7F4FC8010E9498
:100A0000E20ADE86CD8642E050E0BE01635F7F4FA2
:100A1000C8010E94E20AC8010E94180C892B09F43F
:100A20006CCF63E0A62EB12CF2E06F0E711C0E9419
:100A30006B141B012C01C8010E94890A18161906A3
:100A4000A4F00E946B14DC01CB0182199309A40964
:100A5000B50989389341A105B105D0F462E370E08E
:100A600080E090E00E943114E6CFF701428153818B
:100A700064817581808D918DA28DB38D4817590742
:100A80006A077B0741F4848D958DC59721F406C0D4
:100A90002FEF3FEF9AC02EEF3FEF97C0F70181A1F4
:100AA00092A10C970CF4A6C04CE050E0BE016F5F21
:100AB0007F4FC8010E94410A8B8190E0982F8827C0
:100AC0002C81822B9A8B898B298130E0322F22272F
:100AD0004A81242BF701468157814217530709F0B9
:100AE00086C097FF84C08F709270892B09F0DEC09A
:100AF000CF80D12CDC2CCC248885C82AC114D10409
:100B000009F4D1C0812C912C8D8190E0982F8827F9
:100B10002E81822B8816990608F46FC0812C912CA7
:100B200041E050E0BE016D5E7F4FC8010E94410A66
:100B30008B89982F907C09F093C0811186C08B8996
:100B40008111EECF42E050E0BE01615F7F4FC801EE
:100B50000E94410A42E050E0BE01635F7F4FC8013E
:100B60000E94410AC8010E94600AC8010E94600AEE
:100B7000C8010E94600AC8010E94600A42E050E079
:100B8000BE016F5E7F4FC8010E94410A8F85988920
:100B90008115914009F069C02D853E8532272327B4
:100BA00032272130310509F060C089899A89811581
:100BB000944009F075C044E050E0B301C8012C8BAB
:100BC0003D8B0E94410A2C893D896901F1E0AF1AF1
:100BD000B10829F02FEFC216D20609F428CFC801B8
:100BE0000E948D0BC60165C08EEF9FEF62C02CEF97
:100BF0003FEFEBCF2DEF3FEFE8CF41E050E0BE01FC
:100C0000635F7F4FC8010E94410A8D85811113C027
:100C10008D858111F2CFC8010E94600AC8010E942F
:100C2000600AC8010E94600AC8010E94600AFFEFC2
:100C30008F1A9F0A69CF8D859FEF980F9D87882314
:100C400039F3C8010E94600AF6CF8B899FEF980F95
:100C50009B8B882309F473CFC8010E94600AF5CFEB
:100C6000C8010E94600A1B8A6ACF412C512C8989D5
:100C70009A899827892798274816590638F4C80171
:100C80000E94600A8FEF481A580AF1CFEFEF8E1AD0
:100C90009E0A8C149D0409F043CF26EF3FEF95CFB9
:100CA00027EF3FEF92CF2AEF3FEF8FCF2BEF3FEFB2
:100CB0008CCF65960FB6F894DEBF0FBECDBFDF9127
:100CC000CF911F910F91FF90EF90DF90CF90BF9049
:100CD000AF909F908F907F906F905F904F903F90DC
:100CE0002F900895CF92DF92EF92FF920F931F9370
:100CF000CF93DF93CDB7DEB7AF970FB6F894DEBFD3
:100D00000FBECDBF7C016A0100EE11E01A8309839A
:100D10001C861B8688EE93E0A0E0B0E08D879E875E
:100D2000AF87B88B8EE391E09A878987188F0F8BF6
:100D3000198E1A8E1B8E1C8E84E089A31DA30CA312
:100D40001EA21FA218A619A680917C0590917D0570
:100D5000A0917E05B0917F058CA79DA7AEA7BFA7E8
:100D60008B839C83AD83BE8318861F82AE014C5D4E
:100D70005F4FCE0101960E94F70381309105B1F4D7
:100D8000D701ED91FC910684F785E02D1BA70AA7FA
:100D90008EA19FA1A8A5B9A58CA79DA7AEA7BFA707
:100DA000A601BE01665D7F4FC7010995AF960FB6DC
:100DB000F894DEBF0FBECDBFDF91CF911F910F9191
:100DC000FF90EF90DF90CF9008952F923F924F9237
:100DD0005F926F927F928F929F92AF92BF92CF92CB
:100DE000DF92EF92FF920F931F93CF93DF93CDB7D4
:100DF000DEB7E3970FB6F894DEBF0FBECDBF7C0120
:100E00001A012B0139010E946B144B015C0187010F
:100E10000D5B1F4FC8010E94890A18161906A4F01D
:100E20000E946B14DC01CB0188199909AA09BB093E
:100E3000281639064A065B06D8F062E370E080E0C7
:100E400090E00E943114E6CF42E250E0BE016F5FB5
:100E50007F4FC8010E94410A8981823011F080E0F1
:100E600061C1F8018489958983349105C1F702C075
:100E70008FEF58C16D817E818F8198850E94D31F2D
:100E80004B015C01F301608371838283938346E0AD
:100E900050E0B701685F7F4FCE014D960E94E3217D
:100EA000892BE9F6F70180819181A281B3818816AF
:100EB0009906AA06BB0698F284819581A681B7811E
:100EC00088159905AA05BB0550F289899A89AB89CD
:100ED000BC8986879787A08BB18B8EECA82EB12C0E
:100EE000C8010E94600AF1E0AF1AB108C9F719A65B
:100EF000670182E2C80ED11CF701B696FBA7EAA7EC
:100F0000C7018A969DA78CA73C974F0189969FA7FA
:100F10008EA73897F9ABE8AB1701F6E12F0E311C1D
:100F2000C5979BAB8AABF801818D928D1816190677
:100F30000CF0F7C0C8010E94600A8333910509F4E0
:100F4000CBC0FCF481309105C9F11CF4892B59F315
:100F5000DCC083309105D1F1069709F0D6C0C801F5
:100F60000E94600A5C0144E050E06AA97BA9C801C4
:100F70000E94410A412C512CBB24F4E0AF1AB10865
:100F800040C08A33910509F47BC03CF48533910558
:100F900069F0C69709F440C0B8C08B33910509F4D5
:100FA00085C08F3F910509F4BECFAFC0C8010E9434
:100FB000600AC8010E94600A89A7B5CFC8010E94D3
:100FC000600A44E050E068A979A93AC0C8010E94CB
:100FD000600A5C0144E050E0B101C8010E94410A8E
:100FE000412C512CBB2494E0A91AB1084A145B048B
:100FF0000CF099CFC8010E94600AEFEF4E1A5E0A0A
:10100000F5CF4A145B040CF08ECFC8010E94600A31
:101010008FEF481A580AF5CFC8010E94600AB82E0F
:10102000F701828D811110C0838D81110DC0848DD7
:1010300081110AC0858D811107C044E050E0B401E0
:10104000C8010E94410A6FCFEEA5FFA540805180E4
:1010500062807380B401CE0183960E9464138DA1D7
:101060009EA1AFA1B8A584159505A605B70529F3DE
:10107000BB2009F458CFC8010E94600ABA94F8CF87
:10108000C8010E94600A44E050E06AA57BA5C8013F
:101090000E94410AF70166A177A180A591A50E944F
:1010A000D31F66A377A380A791A73DCFC8010E9455
:1010B000600A44E050E06CA57DA5C8010E94410A89
:1010C000F70162A573A584A595A50E94D31F62A709
:1010D00073A784A795A727CFC8010E94600A44E0A0
:1010E00050E0B601C8010E94410AF70162A173A154
:1010F00084A195A10E94D31F62A373A384A395A387
:1011000066A777A780AB91AB0ECFC8010E94600A9B
:10111000B82EBB2009F407CFC8010E94600ABA9418
:10112000F8CF89A5E3960FB6F894DEBF0FBECDBF0A
:10113000DF91CF911F910F91FF90EF90DF90CF90B3
:10114000BF90AF909F908F907F906F905F904F90E7
:101150003F902F9008957F928F929F92AF92BF926F
:10116000CF92DF92EF92FF920F931F93CF93DF9373
:10117000CDB7DEB7A6970FB6F894DEBF0FBECDBFD2
:101180008C01762E942E852E20E2B22ECE01019671
:101190007C01FC012B2D11922A95E9F780EE91E05C
:1011A0009AA389A38FEF8BA38CA38DA38EA3680131
:1011B00083E4C80ED11C43E450E0BE016F5D7F4F55
:1011C000C6010E94D80C019609F4BFC081E0898352
:1011D0008A8386E0A82EAB821C82F8016481758127
:1011E000868197810E94D31F6D837E838F8398872A
:1011F00089869A8680E890E09C878B874CE150E056
:10120000B701C6010E94E20AF7012B2D11922A951F
:10121000E9F7480188E0880E911CF401D70101909C
:101220000D92AA94E1F740E150E0B701C6010E9497
:10123000E20AF7011192BA94E9F796E0A92EB12CCF
:1012400040E250E0B701C6010E94E20AF1E0AF1AA5
:10125000B108B1F783E6898392E89A8393E59B838B
:101260008C8385E38D8381E08E837F829DE39887E5
:1012700097E099878A8786E0F401DE011B9601904A
:101280000D928A95E1F78CE0898B8A8B68EE71E08C
:10129000CE0143960E94F921F8014385BE01675EA5
:1012A0007F4FC8010E94B500F8014485BE01655E0C
:1012B0007F4FC8010E94B500F8014585BE01635EFD
:1012C0007F4FC8010E94B5004EE150E0B701C60152
:1012D0000E94E20AF3E07F121EC082E3898384E069
:1012E0008A83F80196859B8397859C8390899D834B
:1012F00091899E8396E39F838887828D8987838DDA
:101300008A87848D8B87858D8C874CE050E0B70170
:10131000C6010E94E20A87E3898386E08A8391E01E
:101320009B8393E09C838D838FE08E838AE38F83FE
:101330008BE388878FEF898749E050E0B701C601CA
:101340000E94E20AC6010E94180CA6960FB6F894F5
:10135000DEBF0FBECDBFDF91CF911F910F91FF90E8
:10136000EF90DF90CF90BF90AF909F908F907F9045
:1013700008950895CF93DF931F92CDB7DEB76983A9
:10138000DC01ED91FC910280F381E02D41E050E021
:10139000BE016F5F7F4F09950F90DF91CF91089548
:1013A000FC01818D928D0895FC01848995890895B1
:1013B00020EE31E0FC0131832083FB01408951891B
:1013C00062897389FC014283538364837583089522
:1013D000DC01ED91FC91048CF58DE02D099480E009
:1013E0000895FC019485FB018485981303C081E076
:1013F000943009F480E0089521E0FC018485843074
:1014000009F420E0822F08950895CF93DF931F926F
:10141000CDB7DEB7FC01218D328D232B49F0BE0103
:101420006F5F7F4F808D0E946515898190E002C0BB
:101430008FEF9FEF0F90DF91CF9108950F931F9340
:10144000CF93DF931F92CDB7DEB78C01DC01ED9116
:10145000FC910084F185E02D0995892B51F0BE01A6
:101460006F5F7F4FF80184850E946515898190E048
:1014700002C08FEF9FEF0F90DF91CF911F910F91DF
:101480000895CF93DF93FC01218D328D2115310515
:1014900019F48FEF9FEF11C0EC014217530708F0CA
:1014A000A901888D0E94A6151816190694F7298D92
:1014B0003A8D281B390B3A8F298FDF91CF910895F0
:1014C0000F931F93CF93DF931F92CDB7DEB7FC012D
:1014D000218D328D232B61F08C0141E050E0BE0163
:1014E0006F5F7F4F808D0E94A615181619061CF09D
:1014F0008FEF9FEF08C0F801818D928D0197928F39
:10150000818F898190E00F90DF91CF911F910F9192
:1015100008950F931F93CF93DF93CDB7DEB728972E
:101520000FB6F894DEBF0FBECDBF8C01F801818DE0
:10153000928D892B49F0D801ED91FC910284F385BD
:10154000E02DC8010995F2CF808D0E9484151816F0
:1015500019065CF548E050E0BE016F5F7F4FD8018F
:1015600058968C910E94A6159C0118161906DCF459
:1015700089819A81AB81BC81F801808B918BA28B90
:10158000B38B8D8190E0982F88272E81820F911D3B
:10159000958B848B2F8130E0322F22278885280F6E
:1015A000311D328F218FC90102C080E090E0289662
:1015B0000FB6F894DEBF0FBECDBFDF91CF911F9164
:1015C0000F910895AF92BF92CF92DF92FF920F9347
:1015D0001F93CF93DF938C015B01EA01FC01C68866
:1015E000D788F08C80E590E00E94F0028F2D0E9459
:1015F000B80E8C179D0720F48F2D0E94B80EEC01B9
:101600009E01A501B6018F2D0E94530E0E94EF028C
:10161000F801868997898C0F9D1F978B868BCE0149
:10162000DF91CF911F910F91FF90DF90CF90BF90EE
:10163000AF900895CF92DF92EF92FF920F931F9396
:10164000CF93DF93CDB7DEB7AF970FB6F894DEBF79
:101650000FBECDBF7C016A0100EE11E01A83098341
:101660001C861B8688EE93E0A0E0B0E08D879E8705
:10167000AF87B88B8EE391E09A878987188F0F8B9D
:10168000198E1A8E1B8E1C8E84E089A31DA30CA3B9
:101690001EA21FA218A619A680917C0590917D0517
:1016A000A0917E05B0917F058CA79DA7AEA7BFA78F
:1016B0008B839C83AD83BE8318861F82AE014C5DF5
:1016C0005F4FCE0101960E94F70381309105B1F47E
:1016D000D701ED91FC910488F589E02D1BA70AA79D
:1016E0008EA19FA1A8A5B9A58CA79DA7AEA7BFA7AE
:1016F000A601BE01665D7F4FC7010995AF960FB683
:10170000F894DEBF0FBECDBFDF91CF911F910F9137
:10171000FF90EF90DF90CF900895CF93DF93EC018F
:10172000888D843061F00E94F915E88DF0E0EE0FAD
:10173000FF1FE358FB4F1182108284E0888FDF91F6
:10174000CF9108959B0190E00496982F8827642FED
:10175000820F931F0C9443150F931F93CF93DF9326
:101760001F92CDB7DEB790E00496982F88278C01A2
:10177000060F171F0E94C3148FE00E94DD14812FF3
:101780000E94DD14802F0E94DD1480E00E94DD1491
:1017900089830E94C11489810F90DF91CF911F919D
:1017A0000F9108951F93CF93DF931F92CDB7DEB7AC
:1017B000182F80E590E00E94F00263E070E0812F36
:1017C0000E94AC0B89830E94EF0289810F90DF9108
:1017D000CF911F910895EF92FF921F93CF93DF93C4
:1017E000FC01208D243011F080E01CC07B01EC0155
:1017F00010E0812F0E94D20B811102C0188F05C00A
:101800008831E1F31F5F1430A1F7888D843061F3D4
:10181000FD86EC861A8E198E20E0A70162E00E94F8
:101820000D1681E0DF91CF911F91FF90EF90089509
:10183000CF93FC01C08D80E590E00E94F00260E251
:1018400070E08C2F0E94DB0D62E070E08C2F0E9414
:10185000AC0B84FD19C062E070E08C2F0E94AC0BD1
:1018600083FF0BC048E162E070E08C2F0E94A20B66
:101870000E94EF0280E090E011C00E94EF0280E53C
:1018800090E00E94F002E0CF40E162E070E08C2F37
:101890000E94A20B0E94EF0281E090E0CF91089598
:1018A000CF93DF93C82FD62F472F60E170E00E94BF
:1018B000A20B4D2F61E170E08C2FDF91CF910C9442
:1018C000A20BBF92CF92DF92EF92FF920F931F93E2
:1018D000CF93DF9300D000D000D0CDB7DEB7FC01AE
:1018E000208D243009F053C06A017B018C01B12C9A
:1018F00063E070E08B2D0E94AC0B811103C0F801F6
:10190000B08E06C08831D9F3B394F4E0BF12F0CFA3
:10191000F801808D8430D9F196E0E8E6F1E0DE014F
:10192000119601900D929A95E1F7F70193819F77B7
:101930009C8394819D8395819E83B7016E5F7F4FC9
:1019400090E0982F882744E050E0845F9B4F0E94EE
:101950001415B601F801808D0E94500CF801808D9D
:1019600090E0982F882746E050E0BE016F5F7F4FE0
:101970008A5F9B4F0E941415F801128E118E20E889
:10198000A60162E0808D0E940D1681E001C080E01A
:1019900026960FB6F894DEBF0FBECDBFDF91CF9174
:1019A0001F910F91FF90EF90DF90CF90BF9008951F
:1019B000FF920F931F93CF93DF93FB01DC015796A8
:1019C0001C921E9256975896FC908281811109C0F4
:1019D0008381811106C08481811103C085818823A0
:1019E000F9F041155105E1F08A01EF0180E590E041
:1019F0000E94F002BE016E5F7F4F2F2D30E0922FCC
:101A0000882744E050E0845F9B4F0E941415B80182
:101A10008F2D0E94500C0E94EF0281E090E002C0E6
:101A200080E090E0DF91CF911F910F91FF9008959A
:101A3000FC018485843011F00C94D20B80E0089571
:101A4000CF93DF93FC0124852430D1F0EC010E9478
:101A5000180D843181F0882371F0883161F08C3168
:101A600061F4E881F9810084F185E02DCE010995CA
:101A700021E0892B19F420E001C021E0822F01C070
:101A800080E0DF91CF910895CF92DF92EF92FF92A5
:101A90001F93CF93DF93FC0114851430A9F1EC015F
:101AA00080E590E00E94F00268E070E0812F0E94E3
:101AB000DB0D0E94EF020E946B146B017C01CE01D2
:101AC0000E94180D8823B1F061E070E080E090E0A2
:101AD0000E9431140E946B14DC01CB018C199D090A
:101AE000AE09BF09883E9340A105B10540F38C853E
:101AF0000E94F915EC85F0E0EE0FFF1FE358FB4F55
:101B00001182108284E08C87DF91CF911F91FF902A
:101B1000EF90DF90CF9008950F931F93CF93DF93B3
:101B2000EC0188819981009729F02A813B81261751
:101B3000370788F48B016F5F7F4F0E941421009755
:101B400061F0998388831B830A832C813D81232B39
:101B500011F4FC01108281E001C080E0DF91CF919F
:101B60001F910F910895E5E9F4E0A089B18982E021
:101B70008C93A485B5851C92A685B7858FEC8C9334
:101B8000108EA489B58986E08C93A289B3898C9143
:101B900080618C93A289B3898C9188608C93A2898F
:101BA000B3898C9180688C930288F389E02D8081C1
:101BB0008F7D80830895CF93C82F462F61E070E01A
:101BC0000E94A20B61E070E08C2F0E94AC0B81118F
:101BD000F9CFCF9108958F929F92AF92BF92CF92FB
:101BE000DF92EF92FF920F931F93CF93DF93B82E64
:101BF0004B018A01A22E68E270E00E94AC0BC82F54
:101C0000D0E069E270E08B2D0E94AC0BDC2FCC277A
:101C1000C82B9E013770CB2CD12CC601880F991F81
:101C2000AC0143575B4F6A01FA0180819181820FB9
:101C3000931FA801420F531F4130584098F060E0B5
:101C400078E07B01E21AF30AA701B4010E94E414D0
:101C5000A8014E195F09B4016E0D7F1DF601808148
:101C6000918102C0A801B4010E94E414A1100EC029
:101C7000C00FD11F4D2F68E270E08B2D0E94A20B88
:101C80004C2F69E270E08B2D0E94A20BDF91CF9167
:101C90001F910F91FF90EF90DF90CF90BF90AF908A
:101CA0009F908F9008959F92AF92BF92CF92DF92B4
:101CB000EF92FF920F931F93CF93DF93982E8B0198
:101CC0005A01690164E270E00E94AC0BE82EF12C2D
:101CD00065E270E0892D0E94AC0BFE2CEE24E82A10
:101CE000E701C00FD11F9E013770E92CF12CC7010D
:101CF000880F991FAC014B575B4F7A01FA01808125
:101D00009181820F931FA9014C0D5D1D41305840F8
:101D100090F000E018E0021B130BA801B5010E942F
:101D20001415A601401B510BB501600F711FF7017F
:101D30008081918102C0A601B5010E941415CC0DCD
:101D4000DD1D4D2F64E270E0892D0E94A20B4C2F07
:101D500065E270E0892DDF91CF911F910F91FF9087
:101D6000EF90DF90CF90BF90AF909F900C94A20B1C
:101D7000FF920F931F93CF93DF93F82EC0E0D0E034
:101D80008F2D0E94C5148C01892B21F08F2D0E946C
:101D9000C514EC01C017D10799F7CE01DF91CF919F
:101DA0001F910F91FF900895CF93DF93482F50E03C
:101DB00060E070E02AE085E994E00E944B17EC01B6
:101DC00085E994E00E9494178C0F9D1FDF91CF91BD
:101DD0000895EF92FF920F931F93CF93DF93FC012F
:101DE000248135816115710511F480E019C0411518
:101DF0005105A9F07B01EC018A01020F131FB80104
:101E00000E948C0D882389F3288139818C819D81E2
:101E1000B701820F931F0E94F9211D830C8381E07B
:101E2000DF91CF911F910F91FF90EF900895611571
:101E3000710551F0FB0101900020E9F73197AF01E6
:101E4000461B570B0C94E90E80E008950F931F93E7
:101E5000CF93DF938C01EB01FC018081918100978E
:101E6000B1F0688179816115710579F04281538102
:101E70002C813D814217530740F00E94F9218C814B
:101E80009D81F8019583848313C00E947C20888102
:101E90009981F801918380838A819B8193838283D6
:101EA0008C819D8195838483198218821B821A827A
:101EB0001D821C82DF91CF911F910F910895EF92A7
:101EC000FF920F931F93CF93DF93EC017B018A0165
:101ED000BA010E948C0D2881398181110DC0211514
:101EE000310519F0C9010E947C20198218821D82D7
:101EF0001C821B821A8206C01D830C83B701C90194
:101F00000E94F921CE01DF91CF911F910F91FF9097
:101F1000EF900895CF93DF93EC016115710559F0AF
:101F2000FB0101900020E9F73197AF01461B570BE9
:101F30000E945F0F0CC088819981009711F00E9468
:101F40007C20198218821D821C821B821A82CE017B
:101F5000DF91CF910895FC01808191810C947C20C8
:101F6000EF92FF921F93CF93DF93CDB7DEB76E97BB
:101F70000FB6F894DEBF0FBECDBF60EF72E0CE01AA
:101F800049960E947D1660918E0570918F05CE0155
:101F900001960E947D164D815E8169817A81CE0114
:101FA00049960E94E90ECE0101960E94AB0F64E1B2
:101FB00073E0CE0149960E94170F80919005909191
:101FC00091051C8A1B8A1E8A1D8A188E1F8A4AE068
:101FD000BE016F5F7F4F0E94041FBE016F5F7F4F86
:101FE000CE0143960E948A0F4F89588D6B897C8958
:101FF000CE0149960E94E90ECE0143960E94AB0F96
:1020000064E173E0CE0149960E94170F809192051A
:10201000909193051C8A1B8A1E8A1D8A188E1F8A1E
:102020004AE0BE016F5F7F4F0E94041FBE016F5FD9
:102030007F4FCE0143960E948A0F4F89588D6B893E
:102040007C89CE0149960E94E90ECE0143960E94FA
:10205000AB0F66E173E0CE0149960E94170F8091A5
:102060008A0590918B05DC01ED91FC9160918C05C6
:1020700070918D050088F189E02D40E550E00995CB
:10208000892B09F4F8C060E273E085E994E00E94CE
:102090009817BE01675E7F4F80918A0590918B05EE
:1020A0000E94AA1764E373E080918A0590918B05E2
:1020B0000E94361760918C0570918D05CE010196B6
:1020C0000E947D16BE016F5F7F4F80918A059091BF
:1020D0008B050E94AA17CE0101960E94AB0F6BE3FD
:1020E00073E080918A0590918B050E9498178091EA
:1020F0008A0590918B050E94941780918A05909192
:102100008B05DC01ED91FC910680F781E02D0995AE
:102110006DE473E085E994E00E94981765E673E04A
:1021200080918A0590918B050E94C216182F8823F2
:1021300001F162E773E085E994E00E9498176DE889
:1021400073E080918A0590918B050E94C216182F2A
:10215000E0908A05F0908B05811112C0D701ED91B6
:10216000FC910488F589E02DC70109956AEA73E0BE
:1021700002C062E973E085E994E00E9498177CC090
:1021800061E973E0CE0101960E947D16C7010E94AD
:10219000921697FD0FC08A30910561F08B8B1C8AD7
:1021A00041E050E0BE016D5E7F4FCE0101960E947E
:1021B000E90EECCFBE016F5F7F4FCE0149960E94C2
:1021C000260FCE0101960E94AB0FBE01675E7F4FC6
:1021D00085E994E00E94AA176BEB73E085E994E02F
:1021E0000E94981780918A0590918B05DC01ED91F2
:1021F000FC910488F589E02D099580918A059091DC
:102200008B05DC01ED91FC9160918C0570918D0541
:102210000088F189E02D40E45FE10995892B29F1DF
:102220006EEC73E085E994E00E949817BE01675E4A
:102230007F4F80918A0590918B050E94AA1780910B
:102240008A0590918B05DC01ED91FC910680F78168
:10225000E02D09950E946B14609394057093950589
:10226000809396059093970507C068ED73E085E924
:1022700094E00E94981710E0CE0149960E94AB0F9F
:10228000812F6E960FB6F894DEBF0FBECDBFDF91E3
:10229000CF911F91FF90EF900895CF92DF92EF9230
:1022A000FF920F931F93CF93DF9300D000D000D005
:1022B000CDB7DEB78C017B0180918A0590918B05AB
:1022C000DC01ED91FC910688F789E02D09958823C2
:1022D00009F480C0B801CE0101960E947D16BE01AE
:1022E0006F5F7F4F80918A0590918B050E94AA179E
:1022F000E114F10409F447C0D701ED91FC91068483
:10230000F785E02DC70109958C0180918A05909190
:102310008B05DC01ED91FC91D80114964D915C91F7
:1023200015976D917C910280F381E02D09956CEAFF
:1023300072E080918A0590918B050E9436176801A2
:10234000B6E0CB0ED11CB60180918A0590918B0529
:102350000E94AA170115110549F0C6010E94AB0F92
:10236000C8010E94AB0FC8010E947C20D701ED91EB
:10237000FC910190F081E02DC7010995181619060E
:102380000CF4BACF06C06AEE73E085E994E00E94CF
:10239000981780918A0590918B050E9494178091DF
:1023A0008A0590918B05DC01ED91FC910680F78107
:1023B000E02D09950E946B14609394057093950528
:1023C0008093960590939705CE0101960E94AB0FDE
:1023D00081E007C068EF73E085E994E00E949817F8
:1023E00080E026960FB6F894DEBF0FBECDBFDF911A
:1023F000CF911F910F91FF90EF90DF90CF900895B4
:10240000FC01538D448D252F30E0842F90E0821BFA
:10241000930B541710F0CF96089501970895FC017F
:10242000918D828D981761F0828DDF01A80FB11D0B
:102430005D968C91928D9F5F9F73928F90E008952F
:102440008FEF9FEF0895FC01918D828D981731F0E9
:10245000828DE80FF11D858D90E008958FEF9FEF3D
:102460000895FC01918D228D892F90E0805C9F4F13
:10247000821B91098F739927089585E994E00E9442
:10248000311221E0892B09F420E0822F0895FC010C
:10249000848DDF01A80FB11DA35ABF4F2C91848DED
:1024A00090E001968F739927848FA689B7892C9322
:1024B000A089B1898C9180648C93938D848D9813BD
:1024C00006C00288F389E02D80818F7D8083089586
:1024D000EF92FF920F931F93CF93DF93EC0181E074
:1024E000888F9B8D8C8D981305C0E889F989808130
:1024F00085FD24C0F62E0B8D10E00F5F1F4F0F736C
:102500001127E02E8C8DE8120CC00FB607FCFACF15
:10251000E889F989808185FFF5CFCE010E944712B5
:10252000F1CF8B8DFE01E80FF11DE35AFF4FF082D2
:102530000B8FEA89FB898081806207C0EE89FF8961
:102540006083E889F98980818064808381E090E0FC
:10255000DF91CF911F910F91FF90EF900895CF934E
:10256000DF93EC01888D8823C9F0EA89FB8980819B
:1025700085FD05C0A889B9898C9186FD0FC00FB66D
:1025800007FCF5CF808185FFF2CFA889B9898C91AE
:1025900085FFEDCFCE010E944712E7CFDF91CF91AB
:1025A000089580E090E0892B29F00E943D1281116E
:1025B0000C94000008953FB7F8948091DE05909147
:1025C000DF05A091E005B091E10526B5A89B05C007
:1025D0002F3F19F00196A11DB11D3FBFBA2FA92FA2
:1025E000982F8827820F911DA11DB11DBC01CD011F
:1025F00042E0660F771F881F991F4A95D1F708950B
:102600008F929F92AF92BF92CF92DF92EF92FF9202
:102610000F931F93CF93DF937C01EB016C0182E05A
:10262000C80ED11C4701E5E08E0E911C00E010E0C1
:10263000F60141916F0150E060E070E02AE0CE01C8
:102640000E944B175C01E881F9810190F081E02D37
:102650006EE2CE0109958A0D9B1D080F191FC81443
:10266000D90431F7F701458150E060E070E02AE0DD
:10267000CE010E944B17800F911FDF91CF911F91C8
:102680000F91FF90EF90DF90CF90BF90AF909F9011
:102690008F9008950E94DE211F93CF93DF93182F10
:1026A00066E270E00E94AC0BC82FD0E067E270E0F9
:1026B000812F0E94AC0BDC2FCC279E01282BC90157
:1026C000DF91CF911F91089520EE31E0FC0131831D
:1026D0002083FB014081518162817381FC0142832F
:1026E00053836483758308951F920F920FB60F92E0
:1026F00011242F933F934F935F936F937F938F9307
:102700009F93AF93BF93EF93FF9385E994E00E946B
:102710004712FF91EF91BF91AF919F918F917F9160
:102720006F915F914F913F912F910F900FBE0F903E
:102730001F9018951F920F920FB60F9211242F938E
:102740008F939F93EF93FF93E091A504F091A604DC
:102750008081E091AB04F091AC0482FD12C09081C5
:102760008091AE048F5F8F732091AF04821751F078
:10277000E091AE04F0E0EB56FB4F958F8093AE04F2
:1027800001C08081FF91EF919F918F912F910F90C8
:102790000FBE0F901F901895833081F028F4813080
:1027A00099F08230A1F008958730A9F08830B9F00F
:1027B0008430D1F4809180008F7D03C080918000AF
:1027C0008F7780938000089584B58F7702C084B599
:1027D0008F7D84BD08958091B0008F7703C0809174
:1027E000B0008F7D8093B0000895CF93DF9390E089
:1027F000FC01E656FF4F2491FC01EA57FF4F8491FC
:10280000882361F190E0880F991FFC01EE58FF4F7B
:10281000C591D491FC01E859FF4FA591B491611184
:1028200009C09FB7F8948881209582238883EC9112
:102830002E230BC0623061F49FB7F8943881822F49
:10284000809583238883EC912E2B2C939FBF06C009
:102850008FB7F894E8812E2B28838FBFDF91CF911B
:1028600008958F929F92AF92BF92CF92DF92EF9294
:10287000FF926B017C010E94DB124B015C01C114D1
:10288000D104E104F104F1F00E94DB12DC01CB0180
:1028900088199909AA09BB09883E9340A105B10589
:1028A00070F321E0C21AD108E108F10888EE880E21
:1028B00083E0981EA11CB11CC114D104E104F104F1
:1028C00019F7DDCFFF90EF90DF90CF90BF90AF90E2
:1028D0009F908F9008952FB7F8946091DA057091CA
:1028E000DB058091DC059091DD052FBF08951F92D7
:1028F0000F920FB60F9211242F933F938F939F93B4
:10290000AF93BF938091DA059091DB05A091DC0530
:10291000B091DD053091D90523E0230F2D3720F448
:102920000196A11DB11D05C026E8230F0296A11D29
:10293000B11D2093D9058093DA059093DB05A09310
:10294000DC05B093DD058091DE059091DF05A09157
:10295000E005B091E1050196A11DB11D8093DE0552
:102960009093DF05A093E005B093E105BF91AF918F
:102970009F918F913F912F910F900FBE0F901F90BD
:1029800018952A9A08952A9808951F93CF93DF9354
:10299000182F60E270E00E94AC0BC82FD0E061E21B
:1029A00070E0812F0E94AC0BDC2FCC279E01282BDE
:1029B000C901DF91CF911F9108958EBD00000DB424
:1029C00007FEFDCF8EB50895CF92DF92EF92FF9272
:1029D0000F931F93CF93DF93EC017A018B016C016E
:1029E000C40ED51ECC15DD05A9F00E94C3148FE0DE
:1029F0000E94DD148D2F0E94DD148C2F0E94DD14A7
:102A0000219680E00E94DD14F80181938F010E94DD
:102A1000C114E8CFC701DF91CF911F910F91FF90B3
:102A2000EF90DF90CF900895CF92DF92EF92FF92D8
:102A30000F931F93CF93DF93EC017A018B016C010D
:102A4000C40ED51ECC15DD05A1F00E94C31480EF85
:102A50000E94DD148D2F0E94DD148C2F0E94DD1446
:102A60002196F80181918F010E94DD140E94C1140A
:102A7000E9CFC701DF91CF911F910F91FF90EF90A8
:102A8000DF90CF9008951F93CF93DF9300D0CDB701
:102A9000DEB7182F6A8399830E94C31480EF0E94C7
:102AA000DD149981892F0E94DD14812F0E94DD148D
:102AB0006A81862F0E94DD140E94C11481E00F906C
:102AC0000F90DF91CF911F9108951F93CF93DF93C4
:102AD00000D0CDB7DEB7182F80E590E069837A8308
:102AE0000E94F00221E041E050E069817A81812F6B
:102AF0000E94EB0D0E94EF0281E090E00F900F909A
:102B0000DF91CF911F910895FF920F931F93CF9361
:102B1000DF93F82E80E590E00E94F002C0E0D0E064
:102B20008F2D0E944C138C01892B21F08F2D0E9438
:102B30004C13EC01C017D10799F70E94EF02CE01A8
:102B4000DF91CF911F910F91FF900895AF92BF92A7
:102B5000CF92DF92EF92FF921F93CF93DF93182FC4
:102B60005B017A0180E590E00E94F002C0E0D0E0D5
:102B7000812F0E944C136C01892B21F0812F0E9420
:102B80004C13EC01CC15DD0599F7209799F463E01F
:102B900070E0812F0E94AC0B8431F1F08823E1F0CA
:102BA000C1E0D0E08C3111F4C0E0D0E0D195C19506
:102BB000D10912C0EC16FD060CF4E7011C161D0627
:102BC0005CF420E0AE01B501812F0E94EB0D60E4C2
:102BD00070E0812F0E94DB0D0E94EF02CE01DF9199
:102BE000CF911F91FF90EF90DF90CF90BF90AF906B
:102BF0000895CF93C82F80E590E00E94F00260E135
:102C000070E08C2F0E94DB0D4FEF62E070E08C2FA4
:102C10000E94A20BCF910C94EF02FF920F931F938F
:102C2000CF93DF9300D0CDB7DEB7F82E8A012A8389
:102C300069830E94F91580E590E00E94F0022A81E4
:102C40006981462F422B60E070E08F2D0E94A20B1D
:102C50000115110551F40091D7051091D8050F5FAA
:102C60001F4F1093D8050093D705412F64E070E003
:102C70008F2D0E94A20B402F65E070E08F2D0E94E7
:102C8000A20B61E070E08F2D0E94DB0D0E94EF022D
:102C900081E00F900F90DF91CF911F910F91FF90E6
:102CA00008950895CF92DF92EF92FF920F931F93B2
:102CB000CF93DF936C017A018B01C0E0D0E0CE1599
:102CC000DF0589F0D8016D918D01D601ED91FC9160
:102CD0000190F081E02DC6010995892B11F47E0148
:102CE00002C02196ECCFC701DF91CF911F910F91C8
:102CF000FF90EF90DF90CF900895FC011182108239
:102D000013821282158214826115710551F0FB0144
:102D100001900020E9F73197AF01461B570B0C9447
:102D20005F0F08950F931F93CF93DF93EC010E94E1
:102D30006B14688779878A879B87E881F981028489
:102D4000F385E02DCE01099597FF17C00E946B1403
:102D5000088519852A853B85DC01CB01801B910BF9
:102D6000A20BB30B0C811D812E813F81801791072F
:102D7000A207B30710F38FEF9FEFDF91CF911F9161
:102D80000F910895AF92BF92CF92DF92EF92FF9290
:102D90000F931F93CF93DF93FB0101900020E9F77E
:102DA00031978F01061B170B19F420E030E04FC05C
:102DB000EB016C01E12CF12CC6010E94921697FDEB
:102DC00044C0FE01EE0DFF1D2081022E000C330BCE
:102DD0008217930799F1E114F10421F420E030E027
:102DE0007901EACF9701A90141505109FE01E40F91
:102DF000F51F6081062E000C770B86179707D1F41C
:102E00004115510569F3DE01F701E41BF50BEC0FE9
:102E1000FD1F60E070E0AD90B190AB1429F0641735
:102E20007507F1F29A01DFCF6F5F7F4F6417750767
:102E300090F3F5CF41155105A9F7D0CF97012F5F3A
:102E40003F4F2017310761F6B0CF2FEF3FEF81E002
:102E5000232B09F080E0DF91CF911F910F91FF901C
:102E6000EF90DF90CF90BF90AF90089561157105FE
:102E700079F0FB0101900020E9F73197AF01461B83
:102E8000570BDC01ED91FC910280F381E02D099458
:102E900080E090E008954F925F926F927F92EF9260
:102EA000FF920F931F93CF93DF93CDB7DEB7A19718
:102EB0000FB6F894DEBF0FBECDBF7C01FA01CB0187
:102EC00019A2223008F42AE08E010F5D1F4F422E16
:102ED000512C612C712CBF01A30192010E94391F5A
:102EE000F901CA01015011096A3014F4605D01C092
:102EF000695CD8016C93232B242B252B61F7B80137
:102F0000C7010E943617A1960FB6F894DEBF0FBE18
:102F1000CDBFDF91CF911F910F91FF90EF907F90E8
:102F20006F905F904F9008956FE873E00C943617A0
:102F30000F931F93CF93DF93EC010E9436178C0100
:102F4000CE010E949417800F911FDF91CF911F91A6
:102F50000F9108950F931F93CF93DF93EC01E881B6
:102F6000F981DB0114964D915C9115976D917C91DF
:102F70000280F381E02D09958C01CE010E94941707
:102F8000800F911FDF91CF911F910F910895CF93E3
:102F9000DF93CDB7DEB769970FB6F894DEBF0FBEEB
:102FA000CDBF789484B5826084BD84B5816084BDD2
:102FB00085B5826085BD85B5816085BD80916E00D7
:102FC000816080936E001092810080918100826008
:102FD0008093810080918100816080938100809145
:102FE00080008160809380008091B1008460809334
:102FF000B1008091B00081608093B00080917A0030
:10300000846080937A0080917A00826080937A0055
:1030100080917A00816080937A0080917A00806844
:1030200080937A001092C100109276051092770575
:10303000109278051092790510923405109235059A
:1030400010923605109237050E946B146B017C01BB
:103050004B015C0128EB820E2BE0921EA11CB11CDF
:103060000E946B146C157D058E059F0528F0861651
:103070009706A806B906A0F785E994E09093750530
:10308000809374050E94B30D0E946B146093340505
:103090007093350580933605909337056FEE71E098
:1030A00080917405909175050E9436170E946B14EB
:1030B0006B017C014B015C018AE0880E911CA11C14
:1030C000B11C0E946B146C157D058E059F0528F0C0
:1030D00086169706A806B906A0F781E080934805F2
:1030E0000E94B30D78EE472E73E0572E612C712CA1
:1030F000E0EE2E2EE1E03E2E80916D04811124C081
:103100001092550410925404409256045092570461
:103110006092580470925904AEE3B1E0B093530446
:10312000A0935204309261042092600410926204D1
:1031300010926304109264041092650484E08093FA
:103140006A0481E080936D048FE094E090938105A0
:10315000809380056CE271E080E090E00E94311481
:103160001FB7F89480910E0481113FC020E930E030
:10317000F901949144EA50E0FA018491E92FF0E0DA
:10318000EE0FFF1FEE58FF4FA591B4919C9189233C
:10319000D1F4E8EBF0E08491FA010491F901F490A4
:1031A000FF2089F081110E94CC13EF2DF0E0EE0F8B
:1031B000FF1FE859FF4FA591B4918FB7F8949C91E8
:1031C000092B0C938FBF61E08AE00E94F5138CB548
:1031D00080618CBD8CB580648CBD61E08DE00E9407
:1031E000F51361E08BE00E94F51380910E048F5F70
:1031F00080930E041FBF229A80E590E00E94F002A7
:1032000060E880E090E00E94431565E58BE190E086
:103210000E94431565E58AE190E00E9443150E94F3
:10322000EF0280E090E4909386048093850480E030
:1032300090E690938E0480938D0480E098E49093C0
:1032400088048093870480E098E6909390048093AC
:103250008F0480E090E590938A048093890480E055
:1032600090E7909392048093910480E098E5909386
:103270008C0480938B0480E098E79093940480936F
:10328000930480E590E00E94F00246E050E062E0A6
:1032900071E089E090E00E9414153A8229821B8235
:1032A0001C821D821E8244E050E0BE016D5F7F4F94
:1032B0008FE090E00E9414150E94EF0200918005BB
:1032C00010918105D80192961D921D921D921C921B
:1032D0009597F80116A217A210A611A69A961D920C
:1032E0001D921D921C929D9780E69AEEA0E0B0E0A0
:1032F00086AB97ABA0AFB1AF80EA9FE0A0E0B0E0B3
:1033000082AF93AFA4AFB5AFD801189686E0FD01A8
:10331000282F11922A95E9F79801225F3F4F94E1F7
:10332000F90111929A95E9F7E2E0F1E001900D922E
:103330008A95E1F74801F2E48F0E911CD4011C92AA
:103340000E94F61E2FEC37E040E050E00E945B1F29
:10335000DC01CB010196A11DB11DF8018483958389
:10336000A683B78380839183A283B3835801F3E458
:10337000AF0EB11CC5010E948D0B64E470E0C50165
:103380000E94EB0B81110DC061E072E085E994E0D1
:103390000E94981768EE73E080E090E00E9431147C
:1033A000ABCE0E946B146B017C01198E188E1E8AA5
:1033B000D4018C91833009F406C181111FC0F8013A
:1033C00084819581A681B7810196A11DB11D848359
:1033D0009583A683B7830E946B146C197D098E09AF
:1033E0009F09A30192010E94391FA90161E0C80150
:1033F0000E94AB0881E0D4018C93C7C08430F9F4FB
:10340000F80184819581A681B7810196A11DB11D26
:1034100084839583A683B7830E946B146C197D09FE
:103420008E099F09A30192010E94391FA90163E03F
:10343000C8010E94AB08E2E0D401EC93A6C0813041
:1034400069F5D801DA964D915D916D917C91DD978A
:103450009E012F5F3F4FC8010E94E5068E8B823090
:1034600009F093C089819A81AB81BC81F801848382
:103470009583A683B7830E946B146C197D098E090E
:103480009F09A30192010E94391FA90163E0C801AD
:103490000E94AB08EE89D401EC937DC0823009F024
:1034A00074C0D801DA964D915D916D917C91DD9754
:1034B0009E012F5F3F4FC8010E94E5068E8B85302D
:1034C00009F05DC023E0F4012083F80182A193A1FB
:1034D000A4A1B5A1892B8A2B8B2B41F484E893E01E
:1034E000A0E0B0E082A393A3A4A3B5A3F80186A1B2
:1034F00097A1A0A5B1A5892B8A2B8B2B61F482A162
:1035000093A1A4A1B5A1B695A7959795879586A3F4
:1035100097A3A0A7B1A7F80182A593A5A4A5B5A5D7
:10352000892B8A2B8B2BA9F482A193A1A4A1B5A1ED
:10353000AC01BD0123E076956795579547952A958F
:10354000D1F7841B950BA60BB70B82A793A7A4A753
:10355000B5A7F80186A197A1A0A5B1A586A797A7B1
:10356000A0ABB1AB82A593A5A4A5B5A582AB93AB47
:10357000A4ABB5AB81E090E0998F888F0CC09E8999
:10358000963019F4D4011C9206C0BE89BF3F19F4CD
:10359000F40110821E8A888D998D019709F408CF55
:1035A0000E946B14DC01CB018C199D09AE09BF0987
:1035B000F80126A937A940AD51AD281739074A07A8
:1035C0005B0708F0F5CEC5010E948D0BF8018481E0
:1035D0009581A681B7810196A11DB11D8483958334
:1035E000A683B7830E946B14F801FE9660837183F3
:1035F00082839383888D998D019709F056C080E569
:1036000090E00E94F0026091800570918105625FF8
:103610007F4FCE0101960E94641344E050E0BE014A
:103620006D5F7F4F8FE090E00E94141560918005E0
:10363000709181056A5E7F4FCE0101960E946413EE
:1036400044E050E0BE016D5F7F4F81E090E00E945A
:10365000141560918005709181056E5E7F4FCE01DB
:1036600001960E94641344E050E0BE016D5F7F4FFD
:1036700085E090E00E9414150E94EF0260918005A1
:1036800070918105625E7F4FCE0101960E946413A6
:103690008B819C81AD81BE8180937C0590937D055B
:1036A000A0937E05B0937F0505C0A88DB98DAB2B87
:1036B00009F46ACE68E172E085E994E00E94981707
:1036C00060E08FE00E94F51360E084E00E94F51353
:1036D00060E085E00E94F51360E086E00E94F5134B
:1036E0000E94B00F811107C06BE272E085E994E09F
:1036F0000E949817F5CF8AEE92E0909399058093F7
:1037000098058E010F5F1F4F7E01BAE0EB0EF11C92
:1037100085E691E0E3E0E80FE88F80918A059091DB
:103720008B05DC01ED91FC910688F789E02D099568
:1037300081115DC185E994E00E9494176AE372E00B
:1037400085E994E00E94981780918A0590918B05F5
:10375000DC01ED91FC910488F589E02D099569E47F
:1037600072E085E994E00E94981768E873E180E0D0
:1037700090E00E9431140E94B00F2AE7A22E24E0AC
:10378000B22E37E7632E34E0732E42E6242E41E05A
:10379000342EE5E6F1E0FF8BEE8BEE89FF89519048
:1037A000FF8BEE8B252D30E0F901E255FF4F849120
:1037B000F901E656FF4FD490F901EA57FF4FC49044
:1037C000CC2091F081110E94CC13EC2DF0E0EE0F93
:1037D000FF1FE458FF4FA591B491EC91DE2281E0E8
:1037E00009F480E0482E01C0412CD5014C92F30130
:1037F0008081841509F45FC08CE090E00E94E71F8F
:103800006C01DC01ECE01D92EA95E9F761E973E0F7
:103810000E947D164601F6E08F0E911C61E973E06F
:10382000C4010E947D16D1018C911A8219821C82DA
:103830001B821E821D828A871B86B701C8010E94D7
:103840008A0FC016D10621F0B801C6010E94260FCA
:10385000C8010E94AB0FB1E04B120CC065E872E0EA
:1038600085E994E00E943617852D0E94D40E6EE102
:1038700073E00BC06FE872E085E994E00E943617B0
:10388000852D0E94D40E68E972E0C4010E948A0F5F
:10389000E1E0E09376048091880590918905DC0150
:1038A000ED91FC910480F581E02DB6010995F501BB
:1038B0008081D3018C93BFEFAB1ABB0AEFEF6E1A76
:1038C0007E0AFFEF2F1A3F0A288D8E89281365CFB5
:1038D00081E480937C0080917A00806480937A00F8
:1038E00080917A0086FDFCCFA091780080917900CC
:1038F000B0E0B82B24E630E00E94DA1F20E034E08C
:1039000040E050E00E945B1F922E80917504821768
:1039100009F451C06AE972E085E994E00E94361723
:10392000892D0E94D40E909275048CE090E00E9444
:10393000E71F6C018CE0D6011D928A95E9F761E9D9
:1039400073E0C6010E947D165601B6E0AB0EB11CB5
:1039500061E973E0C5010E947D166EEA72E0C6015E
:103960000E948A0F1B861A861D861C861F861E864D
:103970004AE0B801892D90E00E940F1FB801C701ED
:103980000E948A0FAE14BF0421F0B701C5010E9446
:10399000260FC7010E94AB0F809188059091890581
:1039A000DC01ED91FC910480F581E02DB6010995D3
:1039B00081E08093760480917604882351F06091B1
:1039C00088057091890580EB92E00E944D1110925C
:1039D00076048091880590918905DC01ED91FC9138
:1039E0000288F389E02D09950E94D11296CE0E949B
:1039F0006B148090940590909505A0909605B090DA
:103A00009705DC01CB0188199909AA09BB09813600
:103A10009A4EAF4FBF4F60F063E672E085E994E0E5
:103A20000E94981760E070E085E792E00E944D11D7
:103A300080918A0590918B05DC01ED91FC910084C9
:103A4000F185E02D0995892B69F080918A05909187
:103A50008B05DC01ED91FC910688F789E02D099535
:103A600081111EC061E973E0C8010E947D168D813D
:103A70009E81892B89F0E981FA818081882361F018
:103A8000E0919805F0919905C801099560E070E012
:103A900081E892E00E944D11C8010E94AB0F6DCEEB
:103AA00061E973E0CE0140960E947D1680918A05FF
:103AB00090918B05DC01ED91FC910084F185E02D66
:103AC000099518161906ACF480918A0590918B051A
:103AD000DC01ED91FC910284F385E02D0995898349
:103AE0001A8241E050E0B801CE0140960E94E90EF2
:103AF000DDCFBE01605F7F4F85E994E00E94AA1789
:103B00006FE873E0C8010E947D168C899D89892B1E
:103B100069F0A888B98869817A81C5010E9400226C
:103B2000009721F06C01CA18DB0803C0CC24CA94AA
:103B3000DC2C61E973E0C7010E947D168C899D89A8
:103B40000097A9F08C159D0508F46C01E889F989A6
:103B5000EC0DFD1DB080108268897989C7010E9433
:103B60008A0F88899989FC01EC0DFD1DB082B7018F
:103B7000CE0140960E94260FC7010E94AB0FC801DC
:103B80000E94AB0F1A8219821C821B821E821D8228
:103B9000BE01605F7F4FC8010E94260FCE01409694
:103BA0000E94AB0F64CFCF93DF93EAE9F5E080EE9C
:103BB00091E0918380831282138214821582E5E959
:103BC000F4E01382128248EE53E060E070E0448338
:103BD00055836683778322E731E03183208325ECA8
:103BE00030E03587248724EC30E03787268720ECC7
:103BF00030E0318B208B21EC30E0338B228B22ECB8
:103C000030E0358B248B26EC30E0378B268B118E01
:103C1000128E138E148EE2E3F5E016821782108660
:103C20001186128613861486158616861786108AC4
:103C3000118A128A138A148A158AE0EAF5E09183C0
:103C400080831282138214821582E6EAF5E0918362
:103C500080831282138214821582ECEAF5E091834C
:103C600080831282138214821582E2EBF5E0918345
:103C700080831282138214821582EAE7F5E0918331
:103C800080831282138214821582E2E8F5E0918328
:103C900080831282138214821582E8EBF5E091830F
:103CA00080831282138214821582EEEBF5E09183F9
:103CB00080831282138214821582E1EDF5E09183F4
:103CC00080831282138214821582E4ECF5E0138261
:103CD000128244835583668377838AEB91E09183D4
:103CE000808384E08487CAE8D5E088EB92E09B83F8
:103CF0008A83F983E88385E193E09F838E838BEC4D
:103D000092E09D838C838BE292E0998788870E9462
:103D10006B146A877B878C879D878DE090E00E947B
:103D2000E71FFC0184E891E091838083158214826F
:103D300017821682138212821186108613861286CB
:103D40001486F0938905E0938805DF91CF9108955B
:103D50008F929F92AF92BF92CF92DF92EF92FF929B
:103D6000CF93DF93EC01688179818A819B81611512
:103D700071058105910521F464E279ED8BE597E009
:103D80002DE133EF41E050E00E945B1F49015A01F1
:103D90009B01AC01A7EAB1E40E947A1F6B017C0190
:103DA000ACEEB4EFA50194010E94881FDC01CB01A9
:103DB0008C0D9D1DAE1DBF1DB7FF03C00197A1094E
:103DC000B04888839983AA83BB83BC01CD019F77C8
:103DD000DF91CF91FF90EF90DF90CF90BF90AF90A9
:103DE0009F908F9008950E94A81E089588E091E00A
:103DF0000E94A81E089560930801709309018093A2
:103E00000A0190930B010895BB274A3031F499239E
:103E100022F4BDE2909581959F4F0C94101FBB2713
:103E2000FB015527AA27880F991FAA1FA41710F076
:103E3000A41B83955051B9F7A05DAA3308F0A95D82
:103E4000A193009779F7B111B1931192CB010C9422
:103E5000291FDC01FC01672F71917723E1F732976D
:103E600004C07C916D9370836291AE17BF07C8F355
:103E70000895A1E21A2EAA1BBB1BFD010DC0AA1FAB
:103E8000BB1FEE1FFF1FA217B307E407F50720F0C3
:103E9000A21BB30BE40BF50B661F771F881F991F3E
:103EA0001A9469F760957095809590959B01AC0187
:103EB000BD01CF010895052E97FB1EF400940E94CA
:103EC000721F57FD07D00E94391F07FC03D04EF424
:103ED0000C94721F50954095309521953F4F4F4F50
:103EE0005F4F089590958095709561957F4F8F4FA6
:103EF0009F4F08950E94C41FA59F900DB49F900DE1
:103F0000A49F800D911D11240895B7FF0C947A1F72
:103F10000E947A1F821B930B08952F923F924F921B
:103F20005F926F927F928F929F92AF92BF92CF9249
:103F3000DF92EF92FF920F931F93CF93DF93CDB752
:103F4000DEB7CA1BDB0B0FB6F894DEBF0FBECDBFCA
:103F500009942A88398848885F846E847D848C849B
:103F60009B84AA84B984C884DF80EE80FD800C81A4
:103F70001B81AA81B981CE0FD11D0FB6F894DEBF87
:103F80000FBECDBFED010895A29FB001B39FC00148
:103F9000A39F700D811D1124911DB29F700D811D75
:103FA0001124911D08956927962769277827872767
:103FB000782708950E94C41FB7FF0895821B930BB2
:103FC0000895EE0FFF1F0590F491E02D0994CF9313
:103FD000DF938230910510F482E090E0E091E405F7
:103FE000F091E50520E030E0C0E0D0E0309711F13D
:103FF0004081518148175907C0F04817590761F4AB
:1040000082819381209719F09B838A832BC09093A0
:10401000E5058093E40526C02115310519F0421706
:10402000530718F49A01BE01DF01EF010280F3810A
:10403000E02DDCCF2115310509F1281B390B243087
:10404000310590F412968D919C911397611571052D
:1040500021F0FB019383828304C09093E505809354
:10406000E405FD01329644C0FD01E20FF31F819388
:104070009193225031092D933C933AC02091E2054F
:104080003091E305232B41F420910E0130910F0173
:104090003093E3052093E20520910C0130910D014E
:1040A0002115310541F42DB73EB7409110015091D3
:1040B0001101241B350BE091E205F091E305E217B5
:1040C000F307A0F42E1B3F0B2817390778F0AC013B
:1040D0004E5F5F4F2417350748F04E0F5F1F509318
:1040E000E3054093E2058193919302C0E0E0F0E0A4
:1040F000CF01DF91CF9108950F931F93CF93DF935B
:10410000009709F48CC0FC0132971382128200914F
:10411000E4051091E5050115110581F42081318137
:10412000820F931F2091E2053091E305281739078C
:1041300079F5F093E305E093E20571C0D80140E022
:1041400050E0AE17BF0750F412962D913C91139793
:10415000AD012115310509F1D901F3CF9D01DA0136
:104160003383228360817181860F971F82179307A3
:1041700069F4EC0128813981260F371F2E5F3F4FEC
:10418000318320838A819B8193838283452B29F409
:10419000F093E505E093E40542C01396FC93EE939B
:1041A0001297ED01499159919E01240F351FE21795
:1041B000F30771F480819181840F951F0296119607
:1041C0009C938E938281938113969C938E931297E6
:1041D000E0E0F0E0D80112968D919C911397009742
:1041E00019F0F8018C01F6CF8D919C9198012E5F0A
:1041F0003F4F820F931F2091E2053091E30528176E
:10420000390769F4309729F41092E5051092E40516
:1042100002C0138212821093E3050093E205DF913E
:10422000CF911F910F910895A0E0B0E0EAE1F1E293
:104230000C94911FEC01009721F4CB010E94E71F21
:10424000B8C0FC01E60FF71F9C0122503109E217AC
:10425000F30708F4ACC0D9010D911C911197061712
:104260001707B0F00530110508F49FC0C801049786
:104270008617970708F499C002501109061B170BFF
:10428000019311936D937C93CF010E947C208DC08C
:104290005B01A01AB10A4C01800E911EA091E405A9
:1042A000B091E50540E050E0E12CF12C109709F4C5
:1042B0004AC0A815B905D1F56D907C90119763019E
:1042C00082E0C80ED11CCA14DB0480F1A3014A1994
:1042D0005B096A0182E0C80ED11C1296BC9012974D
:1042E0001396AC91B5E0CB16D10440F0B282A38313
:1042F00051834083D9016D937C930AC00E5F1F4F99
:10430000C301800F911FF90191838083EB2DFA2F58
:10431000E114F10431F0D7011396FC93EE93129758
:1043200044C0F093E505E093E4053FC08D919C9176
:1043300011974817590708F4AC017D0112960D90AA
:10434000BC91A02DB3CF8091E2059091E305881533
:104350009905E1F446175707C8F480910C01909134
:104360000D01009741F48DB79EB740911001509117
:104370001101841B950BE817F907C8F4F093E305C6
:10438000E093E205F901718360830FC0CB010E94C5
:10439000E71F7C01009759F0A801BE010E94F0219F
:1043A000CE010E947C20C70104C0CE0102C080E083
:1043B00090E0CDB7DEB7EEE00C94AD1F81E090E069
:1043C000F8940C941A22FB01DC0104C08D91019039
:1043D000801921F441505040C8F7881B990B08956B
:1043E000FB01DC0102C001900D9241505040D8F712
:1043F0000895FB01DC0101900D920020E1F7089582
:10440000FB0151915523A9F0BF01DC014D914517E6
:104410004111E1F759F4CD010190002049F04D918F
:1044200040154111C9F3FB014111EFCF81E090E04C
:0844300001970895F894FFCFF5
:1044380000C0DEADBEEFFEED010000000000E605A5
:104448008000000000004A134A13B2004A134A13BE
:104458004A134A134A13EF094A134A134A134A13D1
:104468004A134A134A134A134A1300000000BA09B0
:10447800E20AB200B909D009600A050AEB0B610C1F
:104488008D0BD80C1A0B180C890A410AE809D809AF
:10449800D40952554C04050601005E0000000000D6
:1044A8000000681252160012AF1231120F122312B6
:1044B8000000000022016202C2022C020C01650108
:1044C800B001F10101012601000000004A13521653
:1044D800B200B1004A134A134A13000000004A13FD
:1044E8005216B200B100000000008C00F302B200C6
:1044F800040A5C0142011E0A670372063E01440D6C
:10450800200DFC09AE00AC00F109A200000000007B
:104518000013000000004A1357495A6E657400568C
:104528004D4450565F317C315F564D4450560D0A0C
:10453800004E6F2045746865726E657420436F6E17
:104548006E656374696F6E0045746865726E657434
:1045580020436F6E6E65637465640052657175659E
:104568007374204661696C656400646973636F6E77
:104578006E656374696E672E0053656E64696E6755
:10458800207265636F6E6E65637420726571756500
:1045980073740053656E64696E6720486561727450
:1045A80062656174003C4845415254424541543E5D
:1045B8000061636B0050494E20484947482000502D
:1045C800494E204C4F5720003000504F5420564140
:1045D8004C5545204368616E6765643A2000530076
:1045E800434F4E54524F4C007777772E696F727253
:1045F800657365617263682E6D6C0031646239336E
:104608006263642D313561392D343862652D386126
:1046180033352D663766383035636565303362006B
:10462800504F5354202F494F542F64617368626F61
:104638006172642F736F636B65742F737562736334
:10464800726962652F0020485454502F312E310072
:10465800436F6E6E656374656420746F2053657272
:1046680076657200486F73743A2000436F6E6E650A
:104678006374696F6E3A20636C6F73650057616984
:1046880074696E6720666F7220726573706F6E73DF
:10469800652E2E2E00485454502F312E31203230A2
:1046A800310041757468656E74696361746564206E
:1046B8005375636365737366756C6C79000D0A0DC9
:1046C8000A00556E61757468656E74696361746516
:1046D80064205265717565737400496E76616C6902
:1046E8006420726573706F6E7365005265636569E7
:1046F80076696E6720526573706F6E736500636FBD
:104708006E6E656374656400636F6E6E656374696D
:104718006F6E206661696C6564004D6574616461E3
:104728007461204E554C4C00436C69656E74206E64
:0E4738006F7420436F6E6E65637465640000DD
:00000001FF
