:100000000C945D000C9485000C9485000C94850084
:100010000C9485000C9485000C9485000C9485004C
:100020000C9485000C9485000C9485000C9485003C
:100030000C9485000C9485000C9485000C9485002C
:100040000C9422100C9485000C946E0F0C94480FA5
:100050000C9485000C9485000C9485000C9485000C
:100060000C9485000C9485000000000025002800F9
:100070002B0000000008000201000003040700003C
:1000800000000000000000000000240027002A00FB
:10009000010204081020408001020408102001021F
:1000A00004081020040404040404040402020202EC
:1000B00002020303030303032D1C11241FBECFEF11
:1000C000D8E0DEBFCDBF13E0A0E0B1E0EEEDF0E49C
:1000D00002C005900D92AE3CB107D9F725E0AEEC19
:1000E000B3E001C01D92AE39B207E1F710E0CDE5F3
:1000F000D0E004C02197FE010E94341ECC35D10708
:10010000C9F70E9427170C946D200C9400000895E5
:10011000CF93DF931F92CDB7DEB76983DC01ED91FA
:10012000FC910280F381E02D41E050E0BE016F5F61
:100130007F4F09950F90DF91CF910895CF93FC01E8
:10014000C08D80E590E00E949F0C60E270E08C2FF3
:100150000E94A41262E070E08C2F0E94670C84FD64
:1001600019C062E070E08C2F0E94670C83FF0BC007
:1001700048E162E070E08C2F0E945D0C0E949E0CB2
:1001800080E090E011C00E949E0C80E590E00E940B
:100190009F0CE0CF40E162E070E08C2F0E945D0C8C
:1001A0000E949E0C81E090E0CF910895FF920F9302
:1001B0001F93CF93DF93FB01DC0157961C921E9295
:1001C00056975896FC908281811109C083818111D4
:1001D00006C08481811103C085818823F9F041150F
:1001E0005105E1F08A01EF0180E590E00E949F0C4B
:1001F000BE016E5F7F4F2F2D30E0922F882744E0A5
:1002000050E0845F9B4F0E94D710B8018F2D0E9451
:100210008D0C0E949E0C81E090E002C080E090E096
:10022000DF91CF911F910F91FF900895BF92CF92D0
:10023000DF92EF92FF920F931F93CF93DF9300D043
:1002400000D000D0CDB7DEB7FC01208D243009F0FE
:1002500053C06A017B018C01B12C63E070E08B2DEF
:100260000E94670C811103C0F801B08E06C088316E
:10027000D9F3B394F4E0BF12F0CFF801808D84304D
:10028000D9F196E0E2E6F1E0DE01119601900D92DF
:100290009A95E1F7F70193819F779C8394819D83E1
:1002A00095819E83B7016E5F7F4F90E0982F8827DE
:1002B00044E050E0845F9B4F0E94D710B601F801E4
:1002C000808D0E948D0CF801808D90E0982F8827FA
:1002D00046E050E0BE016F5F7F4F8A5F9B4F0E94F8
:1002E000D710F801128E118E20E8A60162E0808DF1
:1002F0000E94281181E001C080E026960FB6F89494
:10030000DEBF0FBECDBFDF91CF911F910F91FF9048
:10031000EF90DF90CF90BF900895CF93DF931F921F
:10032000CDB7DEB7FC01218D328D232B49F0BE0104
:100330006F5F7F4F808D0E946C11898190E002C0B9
:100340008FEF9FEF0F90DF91CF910895AF92BF9203
:10035000CF92DF92FF920F931F93CF93DF938C0185
:100360005B01EA01FC01C688D788F08C80E590E04B
:100370000E949F0C8F2D0E9481138C179D0720F4E3
:100380008F2D0E948113EC019E01A501B6018F2DD6
:100390000E941C130E949E0CF801868997898C0F7D
:1003A0009D1F978B868BCE01DF91CF911F910F916F
:1003B000FF90DF90CF90BF90AF900895CF92DF92E3
:1003C000EF92FF920F931F93CF93DF93CDB7DEB7DA
:1003D000AF970FB6F894DEBF0FBECDBF7C016A01A8
:1003E0000AED11E01A8309831C861B8688EE93E0D0
:1003F000A0E0B0E08D879E87AF87B88B8EE391E059
:100400009A878987188F0F8B198E1A8E1B8E1C8ED8
:1004100084E089A31DA30CA31EA21FA218A619A6DF
:1004200080913F0590914005A0914105B091420512
:100430008CA79DA7AEA7BFA78B839C83AD83BE83EC
:1004400018861F82AE014C5D5F4FCE0101960E945F
:10045000850581309105B1F4D701ED91FC910488B7
:10046000F589E02D1BA70AA78EA19FA1A8A5B9A574
:100470008CA79DA7AEA7BFA7A601BE01665D7F4F53
:10048000C7010995AF960FB6F894DEBF0FBECDBF7A
:10049000DF91CF911F910F91FF90EF90DF90CF9060
:1004A0000895AF92BF92CF92DF92EF92FF921F9387
:1004B000CF93DF93182F5B017A0180E590E00E94D3
:1004C0009F0CC0E0D0E0812F0E9470106C01892B3E
:1004D00021F0812F0E947010EC01CC15DD0599F7F9
:1004E000209799F463E070E0812F0E94670C8431BB
:1004F000F1F08823E1F0C1E0D0E08C3111F4C0E0EC
:10050000D0E0D195C195D10912C0EC16FD060CF4CE
:10051000E7011C161D065CF420E0AE01B501812F39
:100520000E94B41260E470E0812F0E94A4120E9425
:100530009E0CCE01DF91CF911F91FF90EF90DF9045
:10054000CF90BF90AF900895CF93DF93FC01218DA2
:10055000328D2115310519F48FEF9FEF11C0EC0199
:100560004217530708F0A901888D0E9451021816FE
:10057000190694F7298D3A8D281B390B3A8F298F4C
:10058000DF91CF9108950F931F93CF93DF931F9225
:10059000CDB7DEB7FC01218D328D232B61F08C01AC
:1005A00041E050E0BE016F5F7F4F808D0E9451029D
:1005B000181619061CF08FEF9FEF08C0F801818D07
:1005C000928D0197928F818F898190E00F90DF91BA
:1005D000CF911F910F9108950F931F93CF93DF93A6
:1005E000CDB7DEB728970FB6F894DEBF0FBECDBFEC
:1005F0008C01F801818D928D892B49F0D801ED9104
:10060000FC910284F385E02DC8010995F2CF808D1D
:100610000E948B11181619065CF548E050E0BE01E7
:100620006F5F7F4FD80158968C910E9451029C01B8
:1006300018161906DCF489819A81AB81BC81F80116
:10064000808B918BA28BB38B8D8190E0982F882724
:100650002E81820F911D958B848B2F8130E0322F5C
:1006600022278885280F311D328F218FC90102C0B2
:1006700080E090E028960FB6F894DEBF0FBECDBFA5
:10068000DF91CF911F910F910895CF93C82F80E5EF
:1006900090E00E949F0C60E170E08C2F0E94A412F9
:1006A0004FEF62E070E08C2F0E945D0CCF910C94B4
:1006B0009E0C1F93CF93DF931F92CDB7DEB7182FF9
:1006C00080E590E00E949F0C63E070E0812F0E9423
:1006D000670C89830E949E0C89810F90DF91CF91D6
:1006E0001F91089580E3FB0180833296842F8295C9
:1006F0008F7090E1899F401911244A3014F4405DB5
:1007000001C0495C4293482F8111F0CF0895DC016C
:100710001496ED91FC9115971C968C911C9788234B
:1007200061F01A962D913C911B97621773072CF07C
:100730001896ED91FC9119970AC020E030E007C0AF
:100740003097C9F00280F381E02D2F5F3F4F2617CD
:100750003707B4F32617370771F481E01C968C93A2
:100760001C971B963C932E931A971996FC93EE9325
:100770001897CF01089580E090E00895CF93DF931C
:10078000EC01E881F9810190F081E02DCE0109951D
:100790001816190644F4E881F9810684F785E02DDE
:1007A000CE010995EECFDF91CF9108950E94870386
:1007B000009721F0FC0180819181089580E090E014
:1007C0000895CF93DF9377FD0EC0FC012281338122
:1007D0006217730744F4EA010E948703FC01D18386
:1007E000C08381E001C080E0DF91CF910895FC01DA
:1007F000828193810895EF92FF920F931F93CF937D
:10080000DF93DC0112962D913C911397121613067B
:1008100024F521303105A1F0EC01EC81FD81E2806D
:10082000F38000811181CF010E94CF1EFD82EC82F6
:100830008A819B8101979B838A831C86C8010FC094
:10084000DC01ED91FC910484F585E02DDF91CF91E1
:100850001F910F91FF90EF90099480E090E0DF915D
:10086000CF911F910F91FF90EF900895EF92FF921B
:100870000F931F93CF93DF93FC0162817381161650
:10088000170664F5EC01148661307105C1F0625001
:1008900071090E9487037C01FC0182819381FC0124
:1008A000008111810E94CF1EF70113821282FF8204
:1008B000EE828A819B8101979B838A830DC084810C
:1008C0009581FC01008111810E94CF1E1D821C8236
:1008D0001F821E821B821A82C80102C080E090E043
:1008E000DF91CF911F910F91FF90EF9008950F939B
:1008F0001F93CF93DF9377FD3EC0DC0112962D91BD
:100900003C91139762177307B4F56115710531F4C3
:10091000ED91FC910684F785E02D0BC02150310943
:100920006217730759F4DC01ED91FC910484F5859D
:10093000E02DDF91CF911F910F910994EC0161504F
:1009400071090E948703DC011296ED91FC911397C7
:10095000008111812281338113963C932E9312974B
:10096000CF010E94CF1E8A819B8101979B838A833E
:100970001C86C80102C080E090E0DF91CF911F91FA
:100980000F910895EF92FF920F931F93CF93DF93F0
:10099000DC0112960D911C9113970115110561F45C
:1009A000ED91FC910480F581E02DDF91CF911F91B5
:1009B0000F91FF90EF9009947B01EC0184E090E0AF
:1009C0000E943A1E2C813D81FC0133832283F182F7
:1009D000E0829D838C830F5F1F4F1B830A831C86DD
:1009E00081E0DF91CF911F910F91FF90EF900895DB
:1009F0000F931F93CF93DF93EC018B0184E090E082
:100A00000E943A1EFC0113821282118300832C8102
:100A10003D81232B29F0EE81FF819383828302C0E5
:100A20009D838C839F838E838A819B8101969B8388
:100A30008A831C8681E0DF91CF911F910F910895E9
:100A4000CF92DF92EF92FF920F931F93CF93DF939A
:100A50009B01BA01DC0112964D915C91139724170A
:100A6000350734F0ED91FC910480F581E02D09C04B
:100A70002115310579F4DC01ED91FC910680F781B7
:100A8000E02DDF91CF911F910F91FF90EF90DF90BC
:100A9000CF9009947B01E9018C0184E090E00E94F1
:100AA0003A1E6C01FC011182108213821282BE0177
:100AB00061507109C8010E948703D6011196FC920A
:100AC000EE92FC012281338113963C932E93129770
:100AD000D382C282D80112968D919C911397019670
:100AE00013969C938E9312971C961C9281E0DF9133
:100AF000CF911F910F91FF90EF90DF90CF900895CD
:100B0000BC0188E594E00C940A172F923F924F9213
:100B10005F926F927F928F929F92AF92BF92CF928D
:100B2000DF92EF92FF920F931F93CF93DF93CDB796
:100B3000DEB765970FB6F894DEBF0FBECDBF7C0160
:100B40006B013A01FB0120E080E090E06AE0319126
:100B5000332309F140ED430F4A3080F4689FA00130
:100B6000699F500D1124CA01C097830F911D37FD55
:100B70009A958F3F910559F350F313C03E3289F493
:100B8000233079F0D301A20FB11D12968C932F5F01
:100B900080E090E0DCCF233021F4F301858381E015
:100BA00021C0F7014281538164817581809147059D
:100BB00090914805A0914905B0914A0548175907F9
:100BC0006A077B0709F49EC10E9416108701085F1F
:100BD0001F4F6F7077277C5FC8010E94730B8130B5
:100BE00019F080E090E0F3C18AED91E09A83898367
:100BF000F70182819381A481B5818B839C83AD832E
:100C0000BE8345E350E0BE016F5F7F4FC8010E9485
:100C1000D600892B19F4C12CD12C6FC10E9416105B
:100C2000F701778366837627672776277A83698338
:100C300042E050E0BE016F5F7F4FC8010E94A601F5
:100C400081E090E09E878D8742E050E0BE01635FC7
:100C50007F4FC8010E94A60180E091E09E878D87AA
:100C600042E050E0BE01635F7F4FC8010E94A601D1
:100C70001E861D8642E050E0BE01635F7F4FC801C3
:100C80000E94A60142E050E0BE01635F7F4FC801B1
:100C90000E94A60142E050E0BE01635F7F4FC801A1
:100CA0000E94A6015601F5018081882311F1F60109
:100CB0005F018191811115C045018C189D081814A0
:100CC000190494F48F8641E050E0BE01615F7F4FCC
:100CD000C8010E94A601A401B601C8010E94A60194
:100CE00003C08E3229F7E8CF6501FFEFCF1ADF0A84
:100CF000DACF1F8641E050E0BE01615F7F4FC8013F
:100D00000E94A601C12CDD24D394DE86CD8642E06C
:100D100050E0BE01635F7F4FC8010E94A601DE86DE
:100D2000CD8642E050E0BE01635F7F4FC8010E9464
:100D3000A601C8010E949E00892B09F46CCF63E0D4
:100D4000A62EB12CF2E06F0E711C0E9416101B0132
:100D50002C01C8010E94EC0218161906A4F00E948A
:100D60001610DC01CB0182199309A409B509893851
:100D70009341A105B105D0F462E370E080E090E01A
:100D80000E94DC0FE6CFF7014281538164817581B7
:100D9000808D918DA28DB38D481759076A077B0707
:100DA00041F4848D958DC59721F406C02FEF3FEF58
:100DB0009AC02EEF3FEF97C0F70181A192A10C9747
:100DC0000CF4A6C04CE050E0BE016F5F7F4FC8013D
:100DD0000E94A4028B8190E0982F88272C81822B7F
:100DE0009A8B898B298130E0322F22274A81242B4C
:100DF000F701468157814217530709F086C097FFD4
:100E000084C08F709270892B09F0DEC0CF80D12C06
:100E1000DC2CCC248885C82AC114D10409F4D1C0A3
:100E2000812C912C8D8190E0982F88272E81822B08
:100E30008816990608F46FC0812C912C41E050E08F
:100E4000BE016D5E7F4FC8010E94A4028B89982F5E
:100E5000907C09F093C0811186C08B898111EECFFF
:100E600042E050E0BE01615F7F4FC8010E94A402D2
:100E700042E050E0BE01635F7F4FC8010E94A402C0
:100E8000C8010E94C302C8010E94C302C8010E9497
:100E9000C302C8010E94C30242E050E0BE016F5E7F
:100EA0007F4FC8010E94A4028F85988981159140C7
:100EB00009F069C02D853E8532272327322721304E
:100EC000310509F060C089899A898115944009F03B
:100ED00075C044E050E0B301C8012C8B3D8B0E94EB
:100EE000A4022C893D896901F1E0AF1AB10829F00B
:100EF0002FEFC216D20609F428CFC8010E94320B88
:100F0000C60165C08EEF9FEF62C02CEF3FEFEBCFC5
:100F10002DEF3FEFE8CF41E050E0BE01635F7F4F30
:100F2000C8010E94A4028D85811113C08D85811195
:100F3000F2CFC8010E94C302C8010E94C302C801C7
:100F40000E94C302C8010E94C302FFEF8F1A9F0ACA
:100F500069CF8D859FEF980F9D87882339F3C8014E
:100F60000E94C302F6CF8B899FEF980F9B8B88233B
:100F700009F473CFC8010E94C302F5CFC8010E94D3
:100F8000C3021B8A6ACF412C512C89899A899827E0
:100F9000892798274816590638F4C8010E94C302C9
:100FA0008FEF481A580AF1CFEFEF8E1A9E0A8C1471
:100FB0009D0409F043CF26EF3FEF95CF27EF3FEF9A
:100FC00092CF2AEF3FEF8FCF2BEF3FEF8CCF65967D
:100FD0000FB6F894DEBF0FBECDBFDF91CF911F914A
:100FE0000F91FF90EF90DF90CF90BF90AF909F90C8
:100FF0008F907F906F905F904F903F902F900895CB
:101000002F923F924F925F926F927F928F929F9218
:10101000AF92BF92CF92DF92EF92FF920F931F9306
:10102000CF93DF93CDB7DEB7E3970FB6F894DEBF6B
:101030000FBECDBF7C011A012B0139010E94161091
:101040004B015C0187010D5B1F4FC8010E94EC0240
:1010500018161906A4F00E941610DC01CB0188199D
:101060009909AA09BB09281639064A065B06D8F071
:1010700062E370E080E090E00E94DC0FE6CF42E2A5
:1010800050E0BE016F5F7F4FC8010E94A4028981BA
:10109000823011F080E061C1F80184899589833440
:1010A0009105C1F702C08FEF58C16D817E818F819C
:1010B00098850E942D1E4B015C01F30160837183B2
:1010C0008283938346E050E0B701685F7F4FCE0193
:1010D0004D960E943620892BE9F6F7018081918197
:1010E000A281B38188169906AA06BB0698F284816C
:1010F0009581A681B78188159905AA05BB0550F28F
:1011000089899A89AB89BC8986879787A08BB18B9F
:101110008EECA82EB12CC8010E94C302F1E0AF1AD8
:10112000B108C9F719A6670182E2C80ED11CF70100
:10113000B696FBA7EAA7C7018A969DA78CA73C97FE
:101140004F0189969FA78EA73897F9ABE8AB170197
:10115000F6E12F0E311CC5979BAB8AABF801818D50
:10116000928D181619060CF0F7C0C8010E94C30230
:101170008333910509F4CBC0FCF481309105C9F1AA
:101180001CF4892B59F3DCC083309105D1F106970B
:1011900009F0D6C0C8010E94C3025C0144E050E0DF
:1011A0006AA97BA9C8010E94A402412C512CBB242E
:1011B000F4E0AF1AB10840C08A33910509F47BC04E
:1011C0003CF48533910569F0C69709F440C0B8C076
:1011D0008B33910509F485C08F3F910509F4BECF8B
:1011E000AFC0C8010E94C302C8010E94C30289A700
:1011F000B5CFC8010E94C30244E050E068A979A9B4
:101200003AC0C8010E94C3025C0144E050E0B10151
:10121000C8010E94A402412C512CBB2494E0A91ABD
:10122000B1084A145B040CF099CFC8010E94C302B4
:10123000EFEF4E1A5E0AF5CF4A145B040CF08ECF26
:10124000C8010E94C3028FEF481A580AF5CFC8019F
:101250000E94C302B82EF701828D811110C0838DC8
:1012600081110DC0848D81110AC0858D811107C047
:1012700044E050E0B401C8010E94A4026FCFEEA583
:10128000FFA54080518062807380B401CE018396B7
:101290000E94380F8DA19EA1AFA1B8A58415950518
:1012A000A605B70529F3BB2009F458CFC8010E9451
:1012B000C302BA94F8CFC8010E94C30244E050E0D0
:1012C0006AA57BA5C8010E94A402F70166A177A1C7
:1012D00080A591A50E942D1E66A377A380A791A744
:1012E0003DCFC8010E94C30244E050E06CA57DA53B
:1012F000C8010E94A402F70162A573A584A595A563
:101300000E942D1E62A773A784A795A727CFC801A7
:101310000E94C30244E050E0B601C8010E94A4024A
:10132000F70162A173A184A195A10E942D1E62A361
:1013300073A384A395A366A777A780AB91AB0ECFC9
:10134000C8010E94C302B82EBB2009F407CFC80110
:101350000E94C302BA94F8CF89A5E3960FB6F89419
:10136000DEBF0FBECDBFDF91CF911F910F91FF90D8
:10137000EF90DF90CF90BF90AF909F908F907F9035
:101380006F905F904F903F902F9008957F928F9233
:101390009F92AF92BF92CF92DF92EF92FF920F9304
:1013A0001F93CF93DF93CDB7DEB7A6970FB6F89410
:1013B000DEBF0FBECDBF8C01762E942E852E20E28F
:1013C000B22ECE0101967C01FC012B2D11922A95A3
:1013D000E9F78AED91E09AA389A38FEF8BA38CA301
:1013E0008DA38EA3680183E4C80ED11C43E450E0B2
:1013F000BE016F5D7F4FC6010E94D600019609F4C1
:10140000BFC081E089838A8386E0A82EAB821C82DC
:10141000F80164817581868197810E942D1E6D83FC
:101420007E838F83988789869A8680E890E09C8760
:101430008B874CE150E0B701C6010E94A601F7017D
:101440002B2D11922A95E9F7480188E0880E911C0E
:10145000F401D70101900D92AA94E1F740E150E028
:10146000B701C6010E94A601F7011192BA94E9F7EB
:1014700096E0A92EB12C40E250E0B701C6010E94CF
:10148000A601F1E0AF1AB108B1F783E6898392E8CB
:101490009A8393E59B838C8385E38D8381E08E83A0
:1014A0007F829DE3988797E099878A8786E0F40199
:1014B000DE011B9601900D928A95E1F78CE0898BF5
:1014C0008A8B68E772E0CE0143960E944C20F801B7
:1014D0004385BE01675E7F4FC8010E947203F80119
:1014E0004485BE01655E7F4FC8010E947203F8010A
:1014F0004585BE01635E7F4FC8010E9472034EE1C5
:1015000050E0B701C6010E94A601F3E07F121EC0A1
:1015100082E3898384E08A83F80196859B8397859B
:101520009C8390899D8391899E8396E39F8388877E
:10153000828D8987838D8A87848D8B87858D8C8723
:101540004CE050E0B701C6010E94A60187E3898301
:1015500086E08A8391E09B8393E09C838D838FE078
:101560008E838AE38F838BE388878FEF898749E0B7
:1015700050E0B701C6010E94A601C6010E949E006C
:10158000A6960FB6F894DEBF0FBECDBFDF91CF9108
:101590001F910F91FF90EF90DF90CF90BF90AF9091
:1015A0009F908F907F900895FC01818D928D08957A
:1015B000FC018489958908952AED31E0FC0131838D
:1015C0002083FB014089518962897389FC01428330
:1015D0005383648375830895DC01ED91FC91048C41
:1015E000F58DE02D099480E00895FC019485FB01C0
:1015F0008485981303C081E0943009F480E0089555
:1016000021E0FC018485843009F420E0822F0895D4
:101610000895CF93DF931F92CDB7DEB76983DC01C6
:10162000ED91FC910280F381E02D41E050E0BE019C
:101630006F5F7F4F09950F90DF91CF910895DC0187
:10164000ED91FC91068CF78DE02D099591E08927AD
:101650000895862F089581E086270895089580E0F3
:1016600090E00895CF93DF93EC01888D843061F092
:101670000E944503E88DF0E0EE0FFF1FEB5CFB4F8F
:101680001182108284E0888FDF91CF910895FC0150
:101690008485843011F00C94590380E00895CF9331
:1016A000DF93FC0124852430D1F0EC010E94470B2C
:1016B000843181F0882371F0883161F08C3161F4DC
:1016C000E881F9810084F185E02DCE01099521E0C2
:1016D000892B19F420E001C021E0822F01C080E0B5
:1016E000DF91CF910895EF92FF921F93CF93DF93F5
:1016F000FC01208D243011F080E01CC07B01EC0146
:1017000010E0812F0E945903811102C0188F05C07B
:101710008831E1F31F5F1430A1F7888D843061F3C5
:10172000FD86EC861A8E198E20E0A70162E00E94E9
:10173000281181E0DF91CF911F91FF90EF900895E4
:101740000F931F93CF93DF931F92CDB7DEB78C011A
:10175000DC01ED91FC910084F185E02D0995892B48
:1017600051F0BE016F5F7F4FF80184850E946C11BC
:10177000898190E002C08FEF9FEF0F90DF91CF91B2
:101780001F910F910895FC0184850C945102CF9311
:10179000DF931F92CDB7DEB741E050E0BE016F5F2F
:1017A0007F4FFC0184850E945102181619061CF413
:1017B000898190E002C08FEF9FEF0F90DF91CF9172
:1017C0000895FC018485843011F00C948B1180E025
:1017D00090E00895CF92DF92EF92FF920F931F93C4
:1017E000CF93DF93CDB7DEB7AF970FB6F894DEBFD8
:1017F0000FBECDBF7C016A010AED11E01A83098397
:101800001C861B8688EE93E0A0E0B0E08D879E8763
:10181000AF87B88B8EE391E09A878987188F0F8BFB
:10182000198E1A8E1B8E1C8E84E089A31DA30CA317
:101830001EA21FA218A619A680913F0590914005EF
:10184000A0914105B09142058CA79DA7AEA7BFA767
:101850008B839C83AD83BE8318861F82AE014C5D53
:101860005F4FCE0101960E94850581309105B1F44C
:10187000D701ED91FC910684F785E02D1BA70AA7FF
:101880008EA19FA1A8A5B9A58CA79DA7AEA7BFA70C
:10189000A601BE01665D7F4FC7010995AF960FB6E1
:1018A000F894DEBF0FBECDBFDF91CF911F910F9196
:1018B000FF90EF90DF90CF9008959B0190E0049609
:1018C000982F8827642F820F931F0C9406110F9373
:1018D0001F93CF93DF931F92CDB7DEB790E00496AE
:1018E000982F88278C01060F171F0E946E108FE01B
:1018F0000E94A010812F0E94A010802F0E94A01093
:1019000080E00E94A01089830E946C1089810F9052
:10191000DF91CF911F910F910895CF93DF93C82F3F
:10192000D62F472F60E170E00E945D0C4D2F61E1E2
:1019300070E08C2FDF91CF910C945D0C08958CBDDD
:101940009DBD0895CF92DF92EF92FF921F93CF93A8
:10195000DF93FC011485143099F1EC0180E590E0EF
:101960000E949F0C68E070E0812F0E94A4120E94E8
:1019700016106B017C01CE010E94470B8823B1F049
:1019800061E070E080E090E00E94DC0F0E941610A1
:10199000DC01CB018C199D09AE09BF09883E93403B
:1019A000A105B10540F38C850E944503EC85F0E06C
:1019B000EE0FFF1FEB5CFB4F1182108284E08C87DF
:1019C000DF91CF911F91FF90EF90DF90CF9008951E
:1019D0008F929F92AF92BF92CF92DF92EF92FF923F
:1019E0000F931F93CF936C015B017A01FC01C485B7
:1019F000C43041F481E090E0F6019383828380E07B
:101A000090E04EC08A014130584010F000E018E0EC
:101A100080E590E00E949F0C8C2F0E9481134C0166
:101A200063E070E08C2F0E94670C873111F08C31DD
:101A300021F48016910660F302C000E010E080E51A
:101A400090E00E949F0C9801A50160E070E08C2F4F
:101A50000E941C1360E270E08C2F0E94A41262E0CE
:101A600070E08C2F0E94670C84FD10C063E070E072
:101A70008C2F0E94670C811104C08C2F0E9445039B
:101A8000B9CF80E590E00E949F0CE9CF40E162E091
:101A900070E08C2F0E945D0C012B09F4ABCFC701C5
:101AA000CF911F910F91FF90EF90DF90CF90BF905B
:101AB000AF909F908F900895CF92DF92FF920F93F7
:101AC0001F93CF93DF93FC012485243009F077C066
:101AD0006A01EB018C01F12C8F2D0E9459038111B9
:101AE00003C0F801F48607C08B7F8831D1F3F394EB
:101AF000F4E0FF12F1CFF8018485843009F45FC06F
:101B000020910601309107012F5F3F4F11F420E033
:101B100030EC30930701209306014091060150916B
:101B2000070120E061E00E942811F801F4848A8115
:101B30008F3F51F48B818F3F91F48C818F3F79F4EB
:101B40008D818F3F61F438C0811109C08B81811173
:101B500006C08C81811103C08D81882369F1C11475
:101B6000D10451F180E590E00E949F0CBE016E5FB0
:101B70007F4F8F2D90E0982F882744E050E0845FBE
:101B80009B4F0E94D710B6018F2D0E948D0C64E0F0
:101B900070E08F2D0E94A412C8010E94470B87316C
:101BA00089F061E070E080E090E00E94DC0FC80105
:101BB0000E94470B8111F0CF84E0F801848780E018
:101BC00090E002C081E090E0DF91CF911F910F91F2
:101BD000FF90DF90CF900895FC01538D448D252F09
:101BE00030E0842F90E0821B930B541710F0CF96B7
:101BF000089501970895FC01918D828D981761F0E9
:101C0000828DDF01A80FB11D5D968C91928D9F5F33
:101C10009F73928F90E008958FEF9FEF0895FC01DE
:101C2000918D828D981731F0828DE80FF11D858D91
:101C300090E008958FEF9FEF0895FC01918D228D24
:101C4000892F90E0805C9F4F821B91098F739927A9
:101C5000089588E594E00E941D0E21E0892B09F487
:101C600020E0822F0895FC01848DDF01A80FB11DB3
:101C7000A35ABF4F2C91848D90E001968F739927C2
:101C8000848FA689B7892C93A089B1898C918064AF
:101C90008C93938D848D981306C00288F389E02D70
:101CA00080818F7D80830895EF92FF920F931F9321
:101CB000CF93DF93EC0181E0888F9B8D8C8D9813FF
:101CC00005C0E889F989808185FD24C0F62E0B8D39
:101CD00010E00F5F1F4F0F731127E02E8C8DE8125D
:101CE0000CC00FB607FCFACFE889F989808185FF1F
:101CF000F5CFCE010E94330EF1CF8B8DFE01E80FA0
:101D0000F11DE35AFF4FF0820B8FEA89FB89808136
:101D1000806207C0EE89FF896083E889F989808144
:101D20008064808381E090E0DF91CF911F910F91DB
:101D3000FF90EF900895CF93DF93EC01888D882377
:101D4000C9F0EA89FB89808185FD05C0A889B98928
:101D50008C9186FD0FC00FB607FCF5CF808185FF03
:101D6000F2CFA889B9898C9185FFEDCFCE010E9471
:101D7000330EE7CFDF91CF91089580E090E0892B7B
:101D800029F00E94290E81110C94000008953FB79C
:101D9000F8948091440490914504A0914604B09138
:101DA000470426B5A89B05C02F3F19F00196A11D39
:101DB000B11D3FBFBA2FA92F982F8827820F911DE1
:101DC000A11DB11DBC01CD0142E0660F771F881F28
:101DD000991F4A95D1F708958F929F92AF92BF9223
:101DE000CF92DF92EF92FF920F931F93CF93DF93E7
:101DF0007C01EB016C0182E0C80ED11C4701E5E0DB
:101E00008E0E911C00E010E0F60141916F0150E050
:101E100060E070E02AE0CE010E94EF155C01E881ED
:101E2000F9810190F081E02D6EE2CE0109958A0DD5
:101E30009B1D080F191FC814D90431F7F7014581FC
:101E400050E060E070E02AE0CE010E94EF15800FC4
:101E5000911FDF91CF911F910F91FF90EF90DF9035
:101E6000CF90BF90AF909F908F9008950E943120A7
:101E70002AED31E0FC0131832083FB014081518157
:101E800062817381FC014283538364837583089567
:101E90001F920F920FB60F9211242F933F934F93DF
:101EA0005F936F937F938F939F93AF93BF93EF93C2
:101EB000FF9388E594E00E94330EFF91EF91BF916C
:101EC000AF919F918F917F916F915F914F913F91D2
:101ED0002F910F900FBE0F901F9018951F920F9289
:101EE0000FB60F9211242F938F939F93EF93FF932D
:101EF000E0916804F09169048081E0916E04F091B2
:101F00006F0482FD12C09081809171048F5F8F7386
:101F100020917204821751F0E0917104F0E0E85AC8
:101F2000FB4F958F8093710401C08081FF91EF91E9
:101F30009F918F912F910F900FBE0F901F9018952A
:101F4000CF93DF9390E0FC01E057FF4F2491FC0119
:101F5000EC55FF4F8491882361F190E0880F991F21
:101F6000FC01EA57FF4FC591D491FC01E859FF4F9E
:101F7000A591B491611109C09FB7F894888120950B
:101F800082238883EC912E230BC0623061F49FB7CB
:101F9000F8943881822F809583238883EC912E2BAF
:101FA0002C939FBF06C08FB7F894E8812E2B28830F
:101FB0008FBFDF91CF9108958F929F92AF92BF9282
:101FC000CF92DF92EF92FF926B017C010E94C70ECD
:101FD0004B015C01C114D104E104F104F1F00E9451
:101FE000C70EDC01CB0188199909AA09BB09883EF3
:101FF0009340A105B10570F321E0C21AD108E108B0
:10200000F10888EE880E83E0981EA11CB11CC11453
:10201000D104E104F10419F7DDCFFF90EF90DF90D8
:10202000CF90BF90AF909F908F9008952FB7F89466
:102030006091400470914104809142049091430466
:102040002FBF08951F920F920FB60F9211242F9356
:102050003F938F939F93AF93BF9380914004909150
:102060004104A0914204B091430430913F0423E025
:10207000230F2D3720F40196A11DB11D05C026E8C0
:10208000230F0296A11DB11D20933F0480934004AD
:1020900090934104A0934204B0934304809144047C
:1020A00090914504A0914604B09147040196A11D6A
:1020B000B11D8093440490934504A0934604B093CB
:1020C0004704BF91AF919F918F913F912F910F90B6
:1020D0000FBE0F901F9018952A9A08952A98089578
:1020E0001F93CF93DF93182F66E270E00E94670C76
:1020F000C82FD0E067E270E0812F0E94670CDC2FD0
:10210000CC279E01282BC901DF91CF911F91089503
:102110001F93CF93DF93182F60E270E00E94670C4B
:10212000C82FD0E061E270E0812F0E94670CDC2FA5
:10213000CC279E01282BC901DF91CF911F910895D3
:102140008EBD00000DB407FEFDCF8EB50895CF9271
:10215000DF92EF92FF920F931F93CF93DF93EC01E7
:102160007A018B016C01C40ED51ECC15DD05A9F0DA
:102170000E946E108FE00E94A0108D2F0E94A01070
:102180008C2F0E94A010219680E00E94A010F801E0
:1021900081938F010E946C10E8CFC701DF91CF912E
:1021A0001F910F91FF90EF90DF90CF900895CF9205
:1021B000DF92EF92FF920F931F93CF93DF93EC0187
:1021C0007A018B016C01C40ED51ECC15DD05A1F082
:1021D0000E946E1080EF0E94A0108D2F0E94A01010
:1021E0008C2F0E94A0102196F80181918F010E94EE
:1021F000A0100E946C10E9CFC701DF91CF911F9111
:102200000F91FF90EF90DF90CF9008951F93CF93A1
:10221000DF9300D0CDB7DEB7182F6A8399830E9471
:102220006E1080EF0E94A0109981892F0E94A0104B
:10223000812F0E94A0106A81862F0E94A0100E9408
:102240006C1081E00F900F90DF91CF911F91089556
:10225000FF920F931F93CF93DF9300D0CDB7DEB7DC
:10226000F82E8A012A8369830E94450380E590E065
:102270000E949F0C2A816981462F422B60E070E00A
:102280008F2D0E945D0C0115110551F400913D0444
:1022900010913E040F5F1F4F10933E0400933D04C6
:1022A000412F64E070E08F2D0E945D0C402F65E0AF
:1022B00070E08F2D0E945D0C61E070E08F2D0E9418
:1022C000A4120E949E0C81E00F900F90DF91CF919D
:1022D0001F910F91FF9008951F93CF93DF9300D02C
:1022E000CDB7DEB7182F80E590E069837A830E942E
:1022F0009F0C21E041E050E069817A81812F0E94AA
:10230000B4120E949E0C81E090E00F900F90DF913C
:10231000CF911F910895FF920F931F93CF93DF9357
:10232000F82E80E590E00E949F0CC0E0D0E08F2D59
:102330000E9470108C01892B21F08F2D0E9470104B
:10234000EC01C017D10799F70E949E0CCE01DF91D6
:10235000CF911F910F91FF90089508950F931F93B0
:10236000CF93DF93EC010E941610688779878A87E4
:102370009B87E881F9810284F385E02DCE010995E0
:1023800097FF17C00E941610088519852A853B857E
:10239000DC01CB01801B910BA20BB30B0C811D81C7
:1023A0002E813F8180179107A207B30710F38FEFAB
:1023B0009FEFDF91CF911F910F9108950F931F937E
:1023C000CF93DF93EC0188819981009729F02A81CE
:1023D0003B812617370788F48B016F5F7F4F0E9480
:1023E000671F009761F0998388831B830A832C8180
:1023F0003D81232B11F4FC01108281E001C080E0BB
:10240000DF91CF911F910F910895EF92FF920F935B
:102410001F93CF93DF93EC017B018A01BA010E94E5
:10242000DE112881398181110DC02115310519F086
:10243000C9010E94CF1E198218821D821C821B8234
:102440001A8206C01D830C83B701C9010E944C206B
:10245000CE01DF91CF911F910F91FF90EF900895E2
:10246000AF92BF92CF92DF92EF92FF920F931F93A2
:10247000CF93DF93FB0101900020E9F731978F01A3
:10248000061B170B19F420E030E04FC0EB016C0184
:10249000E12CF12CC6010E94AE1197FD44C0FE0153
:1024A000EE0DFF1D2081022E000C330B82179307C7
:1024B00099F1E114F10421F420E030E07901EACF50
:1024C0009701A90141505109FE01E40FF51F6081F8
:1024D000062E000C770B86179707D1F4411551058E
:1024E00069F3DE01F701E41BF50BEC0FFD1F60E063
:1024F00070E0AD90B190AB1429F064177507F1F25C
:102500009A01DFCF6F5F7F4F6417750790F3F5CFA8
:1025100041155105A9F7D0CF97012F5F3F4F2017E5
:10252000310761F6B0CF2FEF3FEF81E0232B09F0A9
:1025300080E0DF91CF911F910F91FF90EF90DF909E
:10254000CF90BF90AF900895CF93C82F462F61E0F2
:1025500070E00E945D0C61E070E08C2F0E94670CBF
:102560008111F9CFCF9108958F929F92AF92BF9230
:10257000CF92DF92EF92FF920F931F93CF93DF934F
:10258000B82E4B018A01A22E68E270E00E94670C0F
:10259000C82FD0E069E270E08B2D0E94670CDC2F21
:1025A000CC27C82B9E013770CB2CD12CC601880FAD
:1025B000991FAC01405B5B4F6A01FA0180819181F8
:1025C000820F931FA801420F531F4130584098F0CB
:1025D00060E078E07B01E21AF30AA701B4010E94EF
:1025E000A710A8014E195F09B4016E0D7F1DF601F9
:1025F0008081918102C0A801B4010E94A710A1109E
:102600000EC0C00FD11F4D2F68E270E08B2D0E94CD
:102610005D0C4C2F69E270E08B2D0E945D0CDF9108
:10262000CF911F910F91FF90EF90DF90CF90BF90CF
:10263000AF909F908F9008959F92AF92BF92CF924C
:10264000DF92EF92FF920F931F93CF93DF93982E19
:102650008B015A01690164E270E00E94670CE82E68
:10266000F12C65E270E0892D0E94670CFE2CEE24AF
:10267000E82AE701C00FD11F9E013770E92CF12C29
:10268000C701880F991FAC01485B5B4F7A01FA01C3
:1026900080819181820F931FA9014C0D5D1D4130F6
:1026A000584090F000E018E0021B130BA801B501A0
:1026B0000E94D710A601401B510BB501600F711F7E
:1026C000F7018081918102C0A601B5010E94D71057
:1026D000CC0DDD1D4D2F64E270E0892D0E945D0C54
:1026E0004C2F65E270E0892DDF91CF911F910F9102
:1026F000FF90EF90DF90CF90BF90AF909F900C94A1
:102700005D0CFF920F931F93CF93DF93F82EC0E0E1
:10271000D0E08F2D0E9488108C01892B21F08F2D05
:102720000E948810EC01C017D10799F7CE01DF9104
:10273000CF911F910F91FF900895EF92FF920F9309
:102740001F93CF93DF93FC012481358161157105BF
:1027500011F480E019C041155105A9F07B01EC018D
:102760008A01020F131FB8010E94DE11882389F32A
:10277000288139818C819D81B701820F931F0E942E
:102780004C201D830C8381E0DF91CF911F910F912D
:10279000FF90EF9008956115710551F0FB010190D4
:1027A0000020E9F73197AF01461B570B0C949D139E
:1027B00080E00895CF93DF93EC016115710559F026
:1027C000FB0101900020E9F73197AF01461B570B41
:1027D0000E9405120CC088819981009711F00E9417
:1027E000CF1E198218821D821C821B821A82CE0182
:1027F000DF91CF9108950F931F93CF93DF938C01B7
:10280000EB01FC01808191810097B1F068817981B1
:102810006115710579F0428153812C813D81421708
:10282000530740F00E944C208C819D81F8019583D4
:10283000848313C00E94CF1E88819981F8019183FF
:1028400080838A819B81938382838C819D81958300
:102850008483198218821B821A821D821C82DF9156
:10286000CF911F910F910895FC01808191810C946B
:10287000CF1EFC01118210821382128215821482F3
:102880006115710551F0FB0101900020E9F73197C6
:10289000AF01461B570B0C9405120895EF92FF925F
:1028A0001F93CF93DF93CDB7DEB76E970FB6F89433
:1028B000DEBF0FBECDBF6FE772E0CE0149960E942A
:1028C000391460914F0570915005CE0101960E9418
:1028D00039144D815E8169817A81CE0149960E94C9
:1028E0009D13CE0101960E94341463EA72E0CE017A
:1028F00049960E94CB1380915105909152051C8AF4
:102900001B8A1E8A1D8A188E1F8A4AE0BE016F5FCD
:102910007F4F0E945E1DBE016F5F7F4FCE014396C9
:102920000E94DA134F89588D6B897C89CE014996B4
:102930000E949D13CE0143960E94341463EA72E014
:10294000CE0149960E94CB13809153059091540576
:102950001C8A1B8A1E8A1D8A188E1F8A4AE0BE01A5
:102960006F5F7F4F0E945E1DBE016F5F7F4FCE0184
:1029700043960E94DA134F89588D6B897C89CE016A
:1029800049960E949D13CE0143960E94341465EA35
:1029900072E0CE0149960E94CB1380914B05909135
:1029A0004C05DC01ED91FC9160914D0570914E0557
:1029B0000088F189E02D40E550E00995892B09F464
:1029C000FCC06FEA72E088E594E00E94F816BE0150
:1029D000675E7F4F80914B0590914C050E940A17CE
:1029E00063EC72E080914B0590914C050E94DF16DC
:1029F00060914D0570914E05CE0101960E943914EB
:102A0000BE016F5F7F4F80914B0590914C050E94F6
:102A10000A17CE0101960E9434146AEC72E080918C
:102A20004B0590914C050E94F81680914B059091B2
:102A30004C050E94F41680914B0590914C05DC01E9
:102A4000ED91FC910680F781E02D09956CED72E027
:102A500088E594E00E94F81664EF72E080914B05DF
:102A600090914C050E943012182F882301F161E0EB
:102A700073E088E594E00E94F8166CE173E08091C1
:102A80004B0590914C050E943012182FE0904B0599
:102A9000F0904C05811112C0D701ED91FC91048892
:102AA000F589E02DC701099569E373E002C061E291
:102AB00073E088E594E00E94F81680C060E273E05D
:102AC000CE0101960E943914C7010E94AE1197FDF4
:102AD0000FC08A30910561F08B8B1C8A41E050E079
:102AE000BE016D5E7F4FCE0101960E949D13ECCF1B
:102AF000BE016F5F7F4FCE0149960E94FB13CE014E
:102B000001960E943414BE01675E7F4F88E594E011
:102B10000E940A176AE473E088E594E00E94F816C0
:102B200080914B0590914C05DC01ED91FC9104885E
:102B3000F589E02D099580914B0590914C05DC01BC
:102B4000ED91FC9160914D0570914E050088F189E1
:102B5000E02D40E45FE10995892B49F16DE573E0D3
:102B600088E594E00E94F816BE01675E7F4F809171
:102B70004B0590914C050E940A1780914B0590914E
:102B80004C05DC01ED91FC910680F781E02D099563
:102B90000E94161060935505709356058093570553
:102BA0009093580588E692E00E94601607C067E699
:102BB00073E088E594E00E94F81610E0CE01499693
:102BC0000E943414812F6E960FB6F894DEBF0FBEAC
:102BD000CDBFDF91CF911F91FF90EF9008954F925D
:102BE0005F926F927F92EF92FF920F931F93CF931A
:102BF000DF93CDB7DEB7A1970FB6F894DEBF0FBE57
:102C0000CDBF7C01FA01CB0119A2223008F42AE0E1
:102C10008E010F5D1F4F422E512C612C712CBF0174
:102C2000A30192010E94931DF901CA0101501109EB
:102C30006A3014F4605D01C0695CD8016C93232B89
:102C4000242B252B61F7B801C7010E94DF16A1963E
:102C50000FB6F894DEBF0FBECDBFDF91CF911F91AD
:102C60000F91FF90EF907F906F905F904F9008953D
:102C7000E8E5F4E0A089B18982E08C93A485B5856C
:102C80001C92A685B7858FEC8C93108EA489B5898C
:102C900086E08C93A289B3898C9180618C93A28900
:102CA000B3898C9188608C93A289B3898C91806858
:102CB0008C930288F389E02D80818F7D8083089535
:102CC0000F931F93CF93DF9300D000D000D0CDB7E8
:102CD000DEB78C0180914B0590914C05DC01ED91A4
:102CE000FC910688F789E02D0995882359F1B801F0
:102CF000CE0101960E943914BE016F5F7F4F809113
:102D00004B0590914C050E940A176BEA73E088E529
:102D100094E00E94F81680914B0590914C050E941A
:102D2000F41680914B0590914C05DC01ED91FC91DE
:102D30000680F781E02D0995CE0101960E9434149A
:102D400081E007C069EB73E088E594E00E94F81623
:102D500080E026960FB6F894DEBF0FBECDBFDF91A0
:102D6000CF911F910F910895CF92DF92EF92FF9232
:102D70000F931F93CF93DF936C017A018B01C0E017
:102D8000D0E0CE15DF0589F0D8016D918D01D60117
:102D9000ED91FC910190F081E02DC6010995892B00
:102DA00011F47E0102C02196ECCFC701DF91CF91D3
:102DB0001F910F91FF90EF90DF90CF9008956115D4
:102DC000710579F0FB0101900020E9F73197AF011F
:102DD000461B570BDC01ED91FC910280F381E02D45
:102DE000099480E090E008956EE173E00C94DF16A2
:102DF0000F931F93CF93DF93EC010E94DF168C019A
:102E0000CE010E94F416800F911FDF91CF911F9188
:102E10000F9108950F931F93CF93DF93EC01E881F7
:102E2000F981DB0114964D915C9115976D917C9120
:102E30000280F381E02D09958C01CE010E94F416E9
:102E4000800F911FDF91CF911F910F910895CF9324
:102E5000DF93CDB7DEB765970FB6F894DEBF0FBE30
:102E6000CDBF789484B5826084BD84B5816084BD13
:102E700085B5826085BD85B5816085BD80916E0018
:102E8000816080936E001092810080918100826049
:102E90008093810080918100816080938100809186
:102EA00080008160809380008091B1008460809375
:102EB000B1008091B00081608093B00080917A0071
:102EC000846080937A0080917A00826080937A0097
:102ED00080917A00816080937A0080917A00806886
:102EE00080937A001092C1001092390510923A0531
:102EF00010923B0510923C051092F7041092F804D2
:102F00001092F9041092FA040E9416106B017C01D1
:102F10004B015C0128EB820E2BE0921EA11CB11C20
:102F20000E9416106C157D058E059F0528F08616EB
:102F30009706A806B906A0F788E594E090933805AF
:102F4000809337050E9438160E9416106093F7048C
:102F50007093F8048093F9049093FA0462EE71E0A0
:102F600080913705909138050E94DF160E94161057
:102F70006B017C014B015C018AE0880E911CA11C55
:102F8000B11C0E9416106C157D058E059F0528F05A
:102F900086169706A806B906A0F781E080930B0570
:102FA0000E94381668EE462E63E0562E612C712C76
:102FB0007AED272E71E0372E64EF71E088E594E01A
:102FC0000E94F81680912D04811124C010921504DE
:102FD0001092140440921604509217046092180440
:102FE00070921904AEE3B1E0B0931304A0931204FD
:102FF0003092210420922004109222041092230483
:10300000109224041092250484E080932A0481E025
:1030100080932D048FEC93E09093440580934305B7
:103020006CE271E080E090E00E94DC0F1FB7F89442
:103030008091CE03811166C08EEA90E0FC0154912C
:103040002AE930E0F9014491E52FF0E0EE0FFF1F8F
:10305000EA57FF4FA591B4915C91452309F040C018
:10306000ECE7F0E04491F9012491FC01949199235B
:10307000B9F1442339F1433091F038F44130A9F0EB
:10308000423001F584B58F7D12C0473091F0483051
:10309000A1F04430B9F4809180008F7D03C080910D
:1030A00080008F77809380000DC084B58F7784BDBA
:1030B00009C08091B0008F7703C08091B0008F7DF0
:1030C0008093B000E92FF0E0EE0FFF1FE859FF4FAB
:1030D000A591B4918FB7F8949C91292B2C938FBF15
:1030E00061E08AE00E94A00F8CB580618CBD8CB538
:1030F00080648CBD61E08DE00E94A00F61E08BE0F8
:103100000E94A00F8091CE038F5F8093CE031FBFDC
:10311000229A80E590E00E949F0C60E880E090E0B9
:103120000E94061165E58BE190E00E94061165E5BD
:103130008AE190E00E9406110E949E0C80E090E4DB
:10314000909349048093480480E090E69093510462
:103150008093500480E098E490934B0480934A0459
:1031600080E098E6909353048093520480E090E5C9
:1031700090934D0480934C0480E090E79093550425
:103180008093540480E098E590934F0480934E041C
:1031900080E098E7909357048093560480E590E090
:1031A0000E949F0C46E050E060E071E089E090E012
:1031B0000E94D7103A8229821B821C821D821E82A5
:1031C00044E050E0BE016D5F7F4F8FE090E00E94D1
:1031D000D7100E949E0C0091430510914405D80120
:1031E00092961D921D921D921C929597F80116A21F
:1031F00017A210A611A69A961D921D921D921C92BE
:103200009D9780E69AEEA0E0B0E086AB97ABA0AFCA
:10321000B1AF80EA9FE0A0E0B0E082AF93AFA4AF8F
:10322000B5AFD801189686E0FD01282F11922A9596
:10323000E9F79801225F3F4F94E1F90111929A95C5
:10324000E9F7E0E0F1E001900D928A95E1F748019D
:10325000F2E48F0E911CD4011C920E94501D2FECA1
:1032600037E040E050E00E94B51DDC01CB01019643
:10327000A11DB11DF80184839583A683B783808344
:103280009183A283B3835801F3E4AF0EB11CC5014F
:103290000E94320B64E470E0C5010E94730B882326
:1032A00009F48ACE0E9416106B017C011D8A1C8ACB
:1032B0001B8AD4018C91833009F406C181111FC08F
:1032C000F80184819581A681B7810196A11DB11D68
:1032D00084839583A683B7830E9416106C197D0999
:1032E0008E099F09A30192010E94931DA90161E02B
:1032F000C8010E94C60981E0D4018C93C7C0843004
:10330000F9F4F80184819581A681B7810196A11D08
:10331000B11D84839583A683B7830E9416106C1910
:103320007D098E099F09A30192010E94931DA901A5
:1033300063E0C8010E94C609E2E0D401EC93A6C094
:10334000813069F5D801DA964D915D916D917C914E
:10335000DD979E012F5F3F4FC8010E9400088B8BB5
:10336000823009F093C089819A81AB81BC81F801D8
:1033700084839583A683B7830E9416106C197D09F8
:103380008E099F09A30192010E94931DA90163E088
:10339000C8010E94C609EB89D401EC937DC082303C
:1033A00009F074C0D801DA964D915D916D917C91D0
:1033B000DD979E012F5F3F4FC8010E9400088B8B55
:1033C000853009F05DC023E0F4012083F80182A17B
:1033D00093A1A4A1B5A1892B8A2B8B2B41F484E85E
:1033E00093E0A0E0B0E082A393A3A4A3B5A3F80167
:1033F00086A197A1A0A5B1A5892B8A2B8B2B61F45F
:1034000082A193A1A4A1B5A1B695A79597958795FB
:1034100086A397A3A0A7B1A7F80182A593A5A4A509
:10342000B5A5892B8A2B8B2BA9F482A193A1A4A1EA
:10343000B5A1AC01BD0123E07695679557954795F9
:103440002A95D1F7841B950BA60BB70B82A793A7E0
:10345000A4A7B5A7F80186A197A1A0A5B1A586A7A5
:1034600097A7A0ABB1AB82A593A5A4A5B5A582AB48
:1034700093ABA4ABB5AB81E090E09D8B8C8B0CC083
:103480009B89963019F4D4011C9206C0BB89BF3FBA
:1034900019F4F40110821B8A8C899D89019709F423
:1034A00008CF0E941610DC01CB018C199D09AE09D2
:1034B000BF09F80126A937A940AD51AD2817390732
:1034C0004A075B0708F0F5CEC5010E94320BF801F0
:1034D00084819581A681B7810196A11DB11D848348
:1034E0009583A683B7830E941610F801FE96608329
:1034F0007183828393838C899D89019709F056C0DB
:1035000080E590E00E949F0C609143057091440516
:10351000625F7F4FCE0101960E94380F44E050E079
:10352000BE016D5F7F4F8FE090E00E94D7106091E9
:103530004305709144056A5E7F4FCE0101960E945B
:10354000380F44E050E0BE016D5F7F4F81E090E0B6
:103550000E94D71060914305709144056E5E7F4FC5
:10356000CE0101960E94380F44E050E0BE016D5F2D
:103570007F4F85E090E00E94D7100E949E0C6091E2
:10358000430570914405625E7F4FCE0101960E9413
:10359000380F8B819C81AD81BE8180933F059093D4
:1035A0004005A0934105B093420505C0AC89BD8993
:1035B000AB2B09F401CD6BE072E088E594E00E944A
:1035C000F81660E08FE00E94A00F60E084E00E94A7
:1035D000A00F60E085E00E94A00F60E086E00E94FE
:1035E000A00F0E944E14811107C06EE172E088E5C1
:1035F00094E00E94F816F5CF80E895E090935A0584
:103600008093590580914B0590914C05DC01ED911B
:10361000FC910688F789E02D099581117AC088E52B
:1036200094E00E94F4166DE272E088E594E00E9456
:10363000F81680914B0590914C05DC01ED91FC91C1
:103640000488F589E02D09956CE372E088E594E043
:103650000E94F81668E873E180E090E00E94DC0FB9
:103660000E944E1453C0BE01635F7F4F88E594E013
:103670000E940A176EE173E0CE0101960E94391490
:1036800089899A89892B09F4B5C0ED84FE84698102
:103690007A81C7010E945320009709F4ABC08C01C6
:1036A0000E191F0960E273E0CE0107960E943914DB
:1036B00089899A89009709F0A0C0BE01695F7F4F90
:1036C000CE010D960E94FB13CE0107960E94341482
:1036D000CE0101960E9434141A8219821C821B8228
:1036E0001E821D82BE01635F7F4FCE0101960E9444
:1036F000FB13CE010D960E9434148D819E81892B7F
:1037000009F092C0CE0101960E9434140E94BD0EB1
:1037100079CF0E9416100091550510915605209101
:10372000570530915805DC01CB01801B910BA20B92
:10373000B30B81369A4EA105B105A0F066E572E0A3
:1037400088E594E00E94F81688E692E00E946016F0
:103750000E94161060935505709356058093570587
:103760009093580580914B0590914C05DC01ED91AB
:10377000FC910084F185E02D0995892B09F466C040
:1037800080914B0590914C05DC01ED91FC910688F0
:10379000F789E02D0995882309F458C060E273E0A9
:1037A000CE010D960E94391480914B0590914C05E5
:1037B000DC01ED91FC910084F185E02D099518164E
:1037C00019060CF050CF80914B0590914C05DC010F
:1037D000ED91FC910284F385E02D099589831A828D
:1037E00041E050E0BE016F5F7F4FCE010D960E9419
:1037F0009D13DACF0FEF1FEF55CF8017910708F415
:103800008C01ED85FE85E00FF11FF08010826D8543
:103810007E85CE0107960E94DA138D859E85FC0178
:10382000E00FF11FF08249CFE981FA81808188237E
:1038300009F468CFE0915905F0915A05CE0101963F
:10384000099584E792E00E9460165CCF60E273E025
:10385000CE0101960E94391450CFCF93DF93EBE550
:10386000F5E08AED91E091838083128213821482C5
:103870001582E8E5F4E01382128248EE53E060E03E
:1038800070E044835583668377832CE631E031838F
:10389000208325EC30E03587248724EC30E037871F
:1038A000268720EC30E0318B208B21EC30E0338B0D
:1038B000228B22EC30E0358B248B26EC30E0378BEA
:1038C000268B118E128E138E148EE5EFF4E0168285
:1038D0001782108611861286138614861586168620
:1038E0001786108A118A128A138A148A158AE1E6C9
:1038F000F5E0918380831282138214821582E7E6B9
:10390000F5E0918380831282138214821582EDE6A2
:10391000F5E0918380831282138214821582E3E79B
:10392000F5E0918380831282138214821582EDE385
:10393000F5E0918380831282138214821582E5E47C
:10394000F5E0918380831282138214821582E9E765
:10395000F5E0918380831282138214821582EFE74F
:10396000F5E0918380831282138214821582E4E948
:10397000F5E0918380831282138214821582E7E836
:10398000F5E013821282448355836683778384EB48
:1039900091E09183808384E08487CBE4D5E089E75C
:1039A00093E09B838A83F983E88385E193E09F8397
:1039B0008E8386E893E09D838C838BE292E09987E7
:1039C00088870E9416106A877B878C879D878DE089
:1039D00090E00E943A1EFC018EE791E09183808383
:1039E0001582148217821682138212821186108623
:1039F000138612861486F0938605E0938505DF9181
:103A0000CF9108958F929F92AF92BF92CF92DF9203
:103A1000EF92FF92CF93DF93EC01688179818A81E5
:103A20009B81611571058105910521F464E279EDB1
:103A30008BE597E02DE133EF41E050E00E94B51DAA
:103A400049015A019B01AC01A7EAB1E40E94D41DCF
:103A50006B017C01ACEEB4EFA50194010E94E21D64
:103A6000DC01CB018C0D9D1DAE1DBF1DB7FF03C03A
:103A70000197A109B04888839983AA83BB83BC01BD
:103A8000CD019F77DF91CF91FF90EF90DF90CF90A6
:103A9000BF90AF909F908F9008950E94021D08954F
:103AA00088E091E00E94021D0895609308017093E0
:103AB000090180930A0190930B010895BB274A30B6
:103AC00031F4992322F4BDE2909581959F4F0C9497
:103AD0006A1DBB27FB015527AA27880F991FAA1F1C
:103AE000A41710F0A41B83955051B9F7A05DAA3319
:103AF00008F0A95DA193009779F7B111B1931192E4
:103B0000CB010C94831DDC01FC01672F719177239D
:103B1000E1F7329704C07C916D9370836291AE1788
:103B2000BF07C8F30895A1E21A2EAA1BBB1BFD0113
:103B30000DC0AA1FBB1FEE1FFF1FA217B307E4078C
:103B4000F50720F0A21BB30BE40BF50B661F771FE4
:103B5000881F991F1A9469F76095709580959095C4
:103B60009B01AC01BD01CF010895052E97FB1EF40A
:103B700000940E94CC1D57FD07D00E94931D07FCA6
:103B800003D04EF40C94CC1D509540953095219562
:103B90003F4F4F4F5F4F0895909580957095619579
:103BA0007F4F8F4F9F4F08950E941E1EA59F900D1F
:103BB000B49F900DA49F800D911D11240895B7FF0F
:103BC0000C94D41D0E94D41D821B930B08952F9238
:103BD0003F924F925F926F927F928F929F92AF929D
:103BE000BF92CF92DF92EF92FF920F931F93CF93EA
:103BF000DF93CDB7DEB7CA1BDB0B0FB6F894DEBF81
:103C00000FBECDBF09942A88398848885F846E84A6
:103C10007D848C849B84AA84B984C884DF80EE80F0
:103C2000FD800C811B81AA81B981CE0FD11D0FB6F9
:103C3000F894DEBF0FBECDBFED010895A29FB00185
:103C4000B39FC001A39F700D811D1124911DB29FD0
:103C5000700D811D1124911D0895692796276927EC
:103C60007827872778270895EE0FFF1F0590F49196
:103C7000E02D0994CF93DF938230910510F482E018
:103C800090E0E0919C05F0919D0520E030E0C0E0DF
:103C9000D0E0309711F14081518148175907C0F0A9
:103CA0004817590761F482819381209719F09B830B
:103CB0008A832BC090939D0580939C0526C0211577
:103CC000310519F04217530718F49A01BE01DF01BC
:103CD000EF010280F381E02DDCCF2115310509F1E0
:103CE000281B390B2430310590F412968D919C914C
:103CF00013976115710521F0FB019383828304C042
:103D000090939D0580939C05FD01329644C0FD0172
:103D1000E20FF31F81939193225031092D933C932D
:103D20003AC020919A0530919B05232B41F42091B4
:103D30000E0130910F0130939B0520939A0520913D
:103D40000C0130910D012115310541F42DB73EB71D
:103D50004091100150911101241B350BE0919A05FF
:103D6000F0919B05E217F307A0F42E1B3F0B2817D9
:103D7000390778F0AC014E5F5F4F2417350748F0E4
:103D80004E0F5F1F50939B0540939A05819391932B
:103D900002C0E0E0F0E0CF01DF91CF9108950F93F2
:103DA0001F93CF93DF93009709F48CC0FC013297E7
:103DB0001382128200919C0510919D050115110539
:103DC00081F420813181820F931F20919A053091D7
:103DD0009B052817390779F5F0939B05E0939A0521
:103DE00071C0D80140E050E0AE17BF0750F4129602
:103DF0002D913C911397AD012115310509F1D901A0
:103E0000F3CF9D01DA013383228360817181860FB4
:103E1000971F8217930769F4EC0128813981260FD7
:103E2000371F2E5F3F4F318320838A819B8193838D
:103E30008283452B29F4F0939D05E0939C0542C0B5
:103E40001396FC93EE931297ED01499159919E01BF
:103E5000240F351FE217F30771F480819181840FDD
:103E6000951F029611969C938E938281938113964F
:103E70009C938E931297E0E0F0E0D80112968D911A
:103E80009C911397009719F0F8018C01F6CF8D9152
:103E90009C9198012E5F3F4F820F931F20919A05AE
:103EA00030919B052817390769F4309729F410924F
:103EB0009D0510929C0502C01382128210939B05EF
:103EC00000939A05DF91CF911F910F910895A0E083
:103ED000B0E0EDE6FFE10C94EB1DEC01009721F45E
:103EE000CB010E943A1EB8C0FC01E60FF71F9C01EF
:103EF00022503109E217F30708F4ACC0D9010D9143
:103F00001C91119706171707B0F00530110508F43A
:103F10009FC0C80104978617970708F499C00250FC
:103F20001109061B170B019311936D937C93CF011D
:103F30000E94CF1E8DC05B01A01AB10A4C01800EF9
:103F4000911EA0919C05B0919D0540E050E0E12CB0
:103F5000F12C109709F44AC0A815B905D1F56D9058
:103F60007C901197630182E0C80ED11CCA14DB0457
:103F700080F1A3014A195B096A0182E0C80ED11CD5
:103F80001296BC9012971396AC91B5E0CB16D10463
:103F900040F0B282A38351834083D9016D937C9317
:103FA0000AC00E5F1F4FC301800F911FF90191835B
:103FB0008083EB2DFA2FE114F10431F0D701139631
:103FC000FC93EE93129744C0F0939D05E0939C05FB
:103FD0003FC08D919C9111974817590708F4AC0187
:103FE0007D0112960D90BC91A02DB3CF80919A05C2
:103FF00090919B0588159905E1F446175707C8F479
:1040000080910C0190910D01009741F48DB79EB7FE
:104010004091100150911101841B950BE817F9078D
:10402000C8F4F0939B05E0939A05F90171836083CE
:104030000FC0CB010E943A1E7C01009759F0A801E5
:10404000BE010E944320CE010E94CF1EC70104C0C2
:10405000CE0102C080E090E0CDB7DEB7EEE00C9478
:10406000071E81E090E0F8940C946D20FB01DC01C8
:1040700004C08D910190801921F441505040C8F73F
:10408000881B990B0895FB01DC0102C001900D9281
:1040900041505040D8F70895FB01DC0101900D928A
:1040A0000020E1F70895FB0151915523A9F0BF01CC
:1040B000DC014D9145174111E1F759F4CD01019013
:1040C000002049F04D9140154111C9F3FB01411108
:0E40D000EFCF81E090E001970895F894FFCFC4
:1040DE00DEADBEEFFEED00C00100000000009E054B
:1040EE00800000000000360F360F2F0B360F360FF4
:1040FE00360F360F360FF30A360F360F360F360FD2
:10410E00360F360F360F360F360F000000008800C0
:10411E00A6012F0B8700D40AC3028D01730B160163
:10412E00320BD600DE019E00EC02A402EC0ADC0A81
:10413E00D80A01005E00000000000000540EB41604
:10414E00EC0D9B0E1D0EFB0D0F0E00000000F70375
:10415E002005F804C204E10377043604FB03D603FA
:10416E00BE0300000000360FB4162F0B2E0B360FB9
:10417E00360F360F00000000360FB4162F0B2E0B25
:10418E0000000000090BE80C2F0B080BE10BC70B0E
:10419E00A00B5C0DEA0BC30BA20C4F0B000B2B0BF1
:1041AE00290BF50A1F0B00000000EC0E00000000AA
:1041BE00360F564D4450565F317C315F564D44504C
:1041CE00560D0A00426567696E6E696E67207468E7
:1041DE00652045746865726E657400457468657215
:1041EE006E657420436F6E6E656374656400526510
:1041FE007175657374204661696C656400646973DA
:10420E00636F6E6E656374696E672E0053656E64C0
:10421E00696E67207265636F6E6E6563742072657A
:10422E0071756573740053656E64696E67204865B9
:10423E0061727462656174003C4845415254424556
:10424E0041543E0061636B0057495A6E65740050CD
:10425E004F5354202F494F542F64617368626F611E
:10426E0072642F736F636B65742F737562736372F1
:10427E006962652F0020485454502F312E3100436F
:10428E006F6E6E656374656420746F20536572760D
:10429E00657200486F73743A2000436F6E6E6563EB
:1042AE0074696F6E3A20636C6F7365005761697441
:1042BE00696E6720666F7220726573706F6E7365BC
:1042CE002E2E2E00485454502F312E3120323031A4
:1042DE000041757468656E7469636174656420531A
:1042EE0075636365737366756C6C79000D0A0D0AE0
:1042FE0000556E61757468656E746963617465648A
:10430E00205265717565737400496E76616C6964CF
:10431E0020726573706F6E736500526563656976A2
:10432E00696E6720526573706F6E736500636F6E92
:10433E006E656374656400636F6E6E656374696F3A
:10434E006E206661696C6564003139322E31363803
:10435E002E312E31300038323666373535362D3621
:10436E003434322D346330392D396531652D37367D
:10437E0064626234363235343263004D6574616482
:10438E00617461204E554C4C00436C69656E74200F
:0E439E006E6F7420436F6E6E6563746564000D
:107E0000112484B714BE81FFF0D085E080938100F7
:107E100082E08093C00088E18093C10086E0809377
:107E2000C20080E18093C4008EE0C9D0259A86E02C
:107E300020E33CEF91E0309385002093840096BBD3
:107E4000B09BFECF1D9AA8958150A9F7CC24DD24C4
:107E500088248394B5E0AB2EA1E19A2EF3E0BF2EE7
:107E6000A2D0813461F49FD0082FAFD0023811F036
:107E7000013811F484E001C083E08DD089C08234E0
:107E800011F484E103C0853419F485E0A6D080C0E4
:107E9000853579F488D0E82EFF2485D0082F10E0AE
:107EA000102F00270E291F29000F111F8ED06801E7
:107EB0006FC0863521F484E090D080E0DECF843638
:107EC00009F040C070D06FD0082F6DD080E0C81688
:107ED00080E7D80618F4F601B7BEE895C0E0D1E017
:107EE00062D089930C17E1F7F0E0CF16F0E7DF06D8
:107EF00018F0F601B7BEE89568D007B600FCFDCFD4
:107F0000A601A0E0B1E02C9130E011968C91119780
:107F100090E0982F8827822B932B1296FA010C0160
:107F200087BEE89511244E5F5F4FF1E0A038BF0790
:107F300051F7F601A7BEE89507B600FCFDCF97BE46
:107F4000E89526C08437B1F42ED02DD0F82E2BD052
:107F50003CD0F601EF2C8F010F5F1F4F84911BD097
:107F6000EA94F801C1F70894C11CD11CFA94CF0C13
:107F7000D11C0EC0853739F428D08EE10CD085E9AC
:107F80000AD08FE07ACF813511F488E018D01DD067
:107F900080E101D065CF982F8091C00085FFFCCF94
:107FA0009093C60008958091C00087FFFCCF809118
:107FB000C00084FD01C0A8958091C6000895E0E648
:107FC000F0E098E1908380830895EDDF803219F02E
:107FD00088E0F5DFFFCF84E1DECF1F93182FE3DFCA
:107FE0001150E9F7F2DF1F91089580E0E8DFEE27F6
:047FF000FF270994CA
:027FFE00040479
:0400000300007E007B
:00000001FF